:040000006F00407CD1
:1000040000000000000000004E080000500800003E
:1000140000000000C2070000000000000000000013
:10002400C2070000C207000000000000000000003A
:10003400C207000000000000C2070000000000002A
:10004400C2070000C2070000C2070000C207000088
:10005400C2070000C2070000C2070000C207000078
:10006400C2070000C2070000C2070000C207000068
:10007400C2070000C2070000C2070000C207000058
:10008400C2070000C2070000C2070000C207000048
:10009400C2070000C2070000C2070000C207000038
:1000A400C2070000C2070000C2070000C207000028
:1000B400C2070000C2070000C2070000C207000018
:1000C400C2070000C2070000C2070000C207000008
:1000D400C2070000C2070000C2070000C2070000F8
:1000E400C2070000C2070000C2070000C2070000E8
:1000F400C2070000C2070000C2070000C2070000D8
:1001040000000000C2070000C2070000C207000090
:10011400C2070000C2070000C2070000C2070000B7
:10012400C2070000C2070000C2070000C2070000A7
:10013400C2070000C2070000C2070000C207000097
:10014400C2070000C2070000C2070000C207000087
:10015400C2070000C2070000C2070000C207000077
:10016400C2070000C2070000C2070000C207000067
:10017400C2070000C2070000C2070000C207000057
:10018400C2070000C2070000C2070000C207000047
:10019400C2070000C2070000C2070000C207000037
:1001A400000000000000000000000000000000004B
:0C01B4000000000000000000000000003F
:1001C0003D432A876373C3029377F700BDEFADE524
:1001D000937606FF3D8ABA960CC34CC30CC74CC736
:1001E0004107E36BD7FE11E28280B306C3408A0663
:1001F0009702000096966780A6002307B700A30623
:10020000B7002306B700A305B7002305B700A30472
:10021000B7002304B700A303B7002303B700A3026A
:10022000B7002302B700A301B7002301B700A30062
:10023000B7002300B700828093F5F50F93968500F1
:10024000D58D93960501D58D61B7939627009702BA
:10025000000096968682E78086FA9680C1171D8FE9
:100260003E96E374C3F8A5B7011106CE02C202C4DC
:1002700002C685451145252985472312F1008D4782
:100280003EC4C1473EC64C003715014013050580EA
:100290008522F24005618280938781809C433717D5
:1002A0007A0013070720B3D7E70293F7F70F238DE0
:1002B000F1801307803EB387E702239CF1808280A0
:1002C000B7F700E0D843799BD8C303D781813306C1
:1002D000A702814690CBD4CB98431367070198C3FC
:1002E00098431367170298C3B7F700E0DC43858B88
:1002F000E5DF37F700E01C43F99B1CC3828079716E
:1003000006D622D42A848545116511054D2693070A
:100310000020231AF1008D473ECCE1473ECE4C0829
:100320003715014013050580E12022C22314010086
:10033000231501002316010023180100A1472317EC
:10034000F1004C00374401401305048041268545E7
:10035000130504801529B250225445618280011191
:1003600006CE22CC26CA4AC84EC6AE84B289014403
:1003700031A81389140083850400C205C181374563
:100380000140130505800D210504CA84635B340117
:1003900093050004374501401305058019296DD9DF
:1003A000C9BF4E85F2406244D2444249B249056118
:1003B0008280970700209387E7CC9C433E95138764
:1003C000C182636EE500177700201307A743636AB5
:1003D000A700170700202327A7CA3E858280FD5764
:1003E000EDBFFD57DDBFB7F7FF1F03A54770828044
:1003F0009C4593F8F700C18B81C7DC41B3E8F80056
:1004000083C70500A1CF03280500014719A05CC9D7
:1004100005079D4763E2E7048547B397E70083D666
:100420000500FD8EE396D7FE13162700BD46B39652
:10043000C60093C6F6FF33F806013396C80033684A
:100440000601944513068002E383C6FC130680046C
:10045000E390C6FC1CC96DBF2320050103D705002E
:100460009307F00F63F1E70603284500014721A039
:100470005CC989A005079D4763E5E704130687006B
:100480008547B397C70083D60500FD8EE394D7FE5A
:1004900013162700BD46B396C60093C6F6FF33F881
:1004A00006013396C8003368060190459306800222
:1004B000E300D6FC904593068004E31DD6FA1CC9E0
:1004C00055BF2322050182800CC982804CC98280DD
:1004D00023AEA1808280B7170240DC43B18B114765
:1004E0006381E70821476384E70899C7B7177A0053
:1004F000938707201CC131A0B7177A009387072084
:100500001CC1371602405C429183BD8B97060020C8
:10051000938646AFB69703C707001C41B3D7E700E1
:100520005CC1584221831D8B36970347070033D7A0
:10053000E70018C558422D831D8BBA9603C70600E5
:10054000B3D7E7005CC5584239830D8B9386418051
:100550003697034707001377F70FB3D7E7021CC995
:100560008280B7177A00938707201CC159BF3717BD
:1005700002405C435843C166758FC983BD8B8907B0
:10058000B7F6FF1F83A6C6701396160163450602D1
:10059000C5466386D70481462DE3374702400327CB
:1005A0000780418B39C337177A0013070720B387B9
:1005B000E7021CC171A88946638ED700BD46638DD2
:1005C000D700C1466380D70281464546E396C7FC03
:1005D000C147D9B7C947F5B78546B547FDB7814685
:1005E000C9475DBF8146BD4745BF37173D0013076B
:1005F0000790B387E7021CC1A1A8371702405857DC
:100600001316F70063570608B7150240D855118333
:100610003D8B1306170037177A001307072033574F
:10062000C70218C1D05521823D8A0DEA1316270052
:100630003297058318C110413717024058573D8B38
:1006400005073357E60218C11841B307F7021CC16A
:10065000E38906EA1C4185831CC165B58545630AAB
:10066000B600BD456300B60209063307C70218C1CC
:10067000D9B793151700BA951396350032970583AD
:1006800018C155BF1316270032971316270010C143
:100690005DB73717024058573D8B130617003717C1
:1006A0007A00130707203357C70218C171BF99C5D5
:1006B000371702401C4F5D8D08CF828037170240EC
:1006C0001C4F1345F5FF7D8D08CF8280797106D6CA
:1006D00022D426D22A84AE848356050103D765002E
:1006E000F577FD17F58FD98F2318F5000356C50050
:1006F00083D6450003D7850083D7A500D98ED58F33
:100700007D771307379F718FD98F2316F500835795
:100710004501C207C18303D7C50093F7F7CFD98F2F
:10072000231AF5006800453BB747014093870780CF
:10073000630AF404D24613971600369793173700CE
:10074000B69798400A07B3D7E7029306400633D717
:10075000D70293154700370600107D16718F3307B7
:10076000D702998F920793872703B3D7D702BD8B00
:10077000CD8FC207C1832314F400B2502254925487
:1007800045618280E24645BF81C98357C50009673C
:10079000D98F2316F50082800357C500F977FD171E
:1007A000F98F2316F500828093F5F51F2312B5000B
:1007B000828083570500FD8D99C1054582800145E2
:1007C000828001A0970100209381C10B1781002036
:1007D00013014183171500001305456B9705002091
:1007E000938545821386818163FAC50083220500C3
:1007F00023A0550011059105E3EAC5FE138581810B
:100800009385C1826377B500232005001105E36D50
:10081000B5FEFD42739002BCAD4273904280B76258
:100820000000938282087390023097F2FFFF938258
:10083000A27D93E2320073905230EF008015970250
:10084000000093822202739012347300203001A0C2
:1008500037E700E0B707EFBE938707083CC701A062
:10086000411106C622C40945A531512235347165AE
:10087000130505206934938781808C431715000088
:100880001305855361218536AA85171500001305C8
:10089000A553AD2917150000130505546923E93246
:1008A000854537150140130505800D318545371401
:1008B00001401305048009391305401F1134854593
:1008C0001305048021311305401FDD3AC5B74111DE
:1008D00002C602C4371702401C43C166D58F1CC331
:1008E000B71702409C4337070200F98F3EC4B24756
:1008F00085073EC6A24789E732478567E312F7FEC0
:10090000B71702409C431397E700635A07008547D7
:100910003EC4224785476306F7004101828002C436
:10092000CDBFB7170240D843D8C3D843D8C3D843A4
:1009300013670740D8C3D843B706C1FFFD16758FAC
:10094000D8C3D843B7062900558FD8C39843B706F4
:100950000001558F98C3B71702409C431397670057
:10096000E35B07FEB7170240D843719BD8C3D84357
:1009700013672700D8C3B7170240DC43B18B214768
:10098000E39BE7FE59BF411106C69137B2404101D2
:100990008280411106C6B7170240984313671700BB
:1009A00098C3D843B706FFF0758FD8C39843B706EE
:1009B000F7FEFD16758F98C39843B706FCFFFD162A
:1009C000758F98C3D843B70601FFFD16758FD8C33E
:1009D0009843B70600ECFD16758F98C33707FF00E4
:1009E00098C723A607024537B24041018280B71756
:1009F0000240DC43B18B11476386E7042147638AD9
:100A0000E70481CBB7177A009387072023A4F180EE
:100A100039A0B7177A009387072023A4F180B7176E
:100A20000240DC439183BD8B17F7FF1F1307875EDE
:100A3000BA9783C60700138781801C43B3D7D700BA
:100A40001CC38280B7177A009387072023A4F18004
:100A5000F9B7371702405C435843C166758FC983A5
:100A6000BD8B89078946638CD702BD46638BD7024D
:100A7000C146638BD70281464546638AC70239E384
:100A80003747024003270780418B05C737177A0095
:100A900013070720B387E70223A4F18069A0C947A1
:100AA000C1BF8546B547C9BF8146BD47C9BFC1471C
:100AB000F9B737173D0013070790B387E70223A460
:100AC000F18095A03717024058571316F70063526C
:100AD000060AB7150240D85511833D8B130617003F
:100AE00037177A00130707203357C70223A4E18082
:100AF000D05521823D8A21E21316270032970583C3
:100B000023A4E1803717024058573D8B0507938592
:100B1000818090413357E60298C11387818010434A
:100B2000B387C7021CC3E38C06EE138781801C4386
:100B300085831CC3EDB58545630BB600BD456302D7
:100B4000B60209063307C70223A4E18065BF9315E7
:100B50001700BA95139635003297058323A4E180D8
:100B600055B71316270032971316270023A4C18008
:100B700051BF3717024058573D8B130617003717E0
:100B80007A00130707203357C70223A4E18071B707
:100B9000DDC183A7C5FF411122C406C626C2138446
:100BA000C5FF63D307003E94AA84EF00F013938738
:100BB00001829C4381EF2322040023A081822244EE
:100BC000B2402685924441016F003012637EF400EA
:100BD00014403307D4006396E7009843DC4336970C
:100BE00018C05CC0D9BFBA87D84319C3E37DE4FEFF
:100BF00094433386D700631F86001040B29694C397
:100C00003386D700E31DC7FA10435843B29694C306
:100C1000D8C375B76375C400B1479CC04DB71040C9
:100C2000B306C4006316D70014435843B29614C0E9
:100C300058C0C0C369B78280011126CA93843500A9
:100C4000F19806CE22CC4AC84EC6A104B14763F340
:100C5000F404B14463E2B4042A89EF00F0089387F6
:100C6000018298433A8439E0938741829C4391E71B
:100C700081454A85752A23A2A182A6854A854D2AE7
:100C8000FD5963193507B1472320F9004A85EF0064
:100C9000D00529A0E3D004FCB1471CC10145F240B6
:100CA0006244D2444249B249056182801C40858F2A
:100CB00063CF0702AD4663F6F6001CC03E9404C045
:100CC00031A05C406313870223A0F1824A85EF00C4
:100CD000D0011305B4009307440061993307F54030
:100CE0005DDF3A94898F1CC05DBF5CC3C5B72287A6
:100CF000404095BF130435007198E30285FCB305AD
:100D0000A4404A853522E31C35FBB5BF39713EDA74
:100D10002ED232D436D63AD842DC46DE9387C18012
:100D200022CC804326CA06CEAA8409C41C4C99E36F
:100D30002285B9230C4454102686228536C6EF003E
:100D4000B001F2406244D24421618280011126CA7E
:100D50004AC806CE22CC4EC652C4AA842E8901C5EA
:100D60001C4D91E3312B9C4C804499E32685092B43
:100D7000971700009387C709631CF402C04083578C
:100D8000C400A18BB1C71C48A1C7FD59294A1C4406
:100D900083450900FD17B1E91CC463DE07062286FE
:100DA000A94526855D28FD576308F502294535A02C
:100DB000971700009387C7076314F4008044C1B7F6
:100DC000971700009387C702E31BF4FAC04445BF9E
:100DD000A2852685992255D97D55F2406244D24498
:100DE0004249B249224A056182801CC4050963D781
:100DF0000700184C63CBE700638945011C4013874B
:100E0000170018C02380B70059B722862685B12065
:100E1000E31F35F7D1B71C401387170018C02947C7
:100E20002380E70061B79387C180AA85884339BFD3
:100E3000411122C42A842E8523A4018206C6EFF024
:100E40004FD7FD576317F500938781829C4391C369
:100E50001CC0B240224441018280011122CC26CA2A
:100E60004AC806CE4EC6AA842E89328401C51C4DBE
:100E700091E3392197170000938787F96319F406E6
:100E8000C0401C4C1CC48357C400A18BC9C31C4860
:100E9000BDCF1C4808409379F90F1379F90F1D8DC8
:100EA0005C486346F500A2852685652C2DE51C442B
:100EB0000505FD171CC41C401387170018C02380AC
:100EC00037015C486389A7008357C400858B81CBB9
:100ED000A9476316F900A285268561240DEDF2402D
:100EE00062444A85D2444249B249056182809717DB
:100EF00000009387E7F36314F400804459B7971711
:100F000000009387E7EEE31EF4F6C0449DBFA28580
:100F1000268521203DDD7D59D9B741119387C180B8
:100F200026C2844322C44AC006C62A892E8489C4A4
:100F30009C4C99E32685A92697170000938747EDD7
:100F4000631CF402C0400317C40093170701C18358
:100F500093F68700B5EE93F607019DEEA547232093
:100F6000F900136707042316E4007D55B2402244BC
:100F7000924402494101828097170000938747EB12
:100F80006314F4008044C1B797170000938747E6C5
:100F9000E31BF4FAC04445BF918B8DC74C5889C9F7
:100FA000930744046384F5004A85DD36232A04024E
:100FB0008357C4002322040093F7B7FD2316F400DF
:100FC0001C481CC08357C40093E787002316F40015
:100FD0001C4881EF8357C4001307002093F70728AC
:100FE0006385E700A2854A8585218357C40013F7EE
:100FF000170005C75C4823240400B307F0401CCC4D
:101000001C480145A5F78317C40013F7070839DF0B
:1010100093E707042316F40089BF898B014791E306
:10102000584818C4F1BF83D7C500011122CC26CA85
:1010300006CE4AC84EC613F78700AA842E8471EFE5
:10104000D841634DE000B841634AE0000145F240F9
:101050006244D2444249B2490561828058547DD7E6
:1010600003A904009396370123A0040063DD06065C
:1010700070488357C400918B99C75C401D8E5C58A3
:1010800099C33C401D8E5C540C5081462685829746
:10109000FD570357C400631DF5009440F54763E80E
:1010A000D706B70740208507B3D7D700858BA5C3E0
:1010B0001C48232204001CC09317370163D8070083
:1010C000FD576314F5009C4091E368C84C5823A079
:1010D0002401ADDD930744046384F50026854D3C6F
:1010E000232A0402A5B70C5001468546268502979F
:1010F000FD572A86E31FF5F69C40A5DF75476385FB
:10110000E70059476394E70423A0240181B71367DC
:1011100007042316E4007D551DBF83A90501E3875D
:1011200009F203A905008D8B23A03501330939414C
:10113000014791E3D84918C4E35A20F11C540C50DC
:10114000CA864E86268582976349A0008357C400CD
:1011500093E707042316F4007DBFAA993309A94039
:10116000E1BF9C49B9CF011122CC06CE2A8411C51A
:101170001C4D81E72EC62922B245971700009387A0
:1011800027C9639BF5004C408397C50095C722850E
:101190006244F240056141BD97170000938747C93B
:1011A0006394F5000C44CDB797170000938747C4AC
:1011B000E39CF5FC4C44C9BFF24062440145056123
:1011C000828001458280411122C406C62A842316EA
:1011D000B5002317C5002320050023220500232482
:1011E00005002322050623280500232A0500232CB9
:1011F0000500214681451305C505EFE07FFC9717E3
:1012000000009387679A5CD0971700009387C79C6C
:101210001CD497170000938707A15CD49717000090
:101220009387C7A300D01CD8B240224441018280DA
:1012300097050000938525F3A9A2411126C2130644
:1012400080069384F5FFB384C4024AC02E8922C469
:1012500006C693854407CD322A8401CD232005009C
:1012600023222501310508C4138684068145EFE059
:101270003FF52285B24022449244024941018280D6
:101280001C4DADE3411106C622C4970700009387A9
:1012900067FA1CD5938701819C43232405042326E8
:1012A0000504232805046314F50085471CCD2A8412
:1012B0001D2848C02285052808C422852D2048C441
:1012C000484001469145013708440546A545E53D9E
:1012D00048440946C945C53D85471CCCB240224417
:1012E00041018280828041119387018126C284431B
:1012F0004AC006C69C4C22C42A8999E326854937F0
:10130000938484048044DC40FD1763D607009C402E
:10131000B9CF8440C5BF0317C40039E7C17785073B
:101320002322040623200400232204002324040093
:101330005CC423280400232A0400232C0400214633
:1013400081451305C405EFE0BFE7232A0402232CDF
:10135000040223240404232604042285B2402244E8
:1013600092440249410182801304840671BF914571
:101370004A85E13588C051FDB1472320F900014479
:10138000E9BF797122D44AD052CC56CA5AC85EC637
:1013900006D626D24ECE2A8AAE8A13048504014987
:1013A000054BFD5B09ECB25022544A859254025918
:1013B000F249624AD24A424BB24B456182800444B0
:1013C00083294400FD1963D409000040E1BF83D79D
:1013D000C400637BFB008397E40063877701A685E5
:1013E0005285829A3369A90093848406E1BF1971FA
:1013F000A6DAAE848395E500A2DC86DE328463DC67
:10140000050083D7C40023A0060093F7070885E7EB
:10141000930700401DA0300836C6EF00B009B24661
:10142000E34105FE7247BD67F98F7977BA9793B7A5
:1014300017009CC2F1BF930700041CC0F65066540D
:10144000D65401450961828083D7C500011122CCA1
:1014500006CE26CA4AC8898B2E8489CF9307740486
:101460001CC01CC885475CC8F2406244D244424953
:101470000561828074003000AA84953FA2452A89C4
:101480002685EFF06FFB01ED8317C40013F70720EB
:1014900061FFF19B93E727002316F400C1B797077C
:1014A0000000938727D99CD48357C40008C008C87C
:1014B00093E707082316F400A2475CC8B24791CF10
:1014C0008315E4002685EF00900101C98357C4000D
:1014D000F19B93E717002316F4008357C400336988
:1014E000F9002316240149B7828082801C46FD172B
:1014F0001CC663DA0700184E63C5E700A94763946A
:10150000F5006FF09F951C422E851387170018C2B7
:101510002380B7008280011122CC26CA4AC84EC659
:1015200052C406CE2A89AE893284B304D6007D5ACD
:1015300063149400014509A8834504004E864A853A
:1015400075370504E31645FFF2406244D244424930
:10155000B249224A05618280357122CD26CB4AC923
:101560004EC706CF52C556C35AC1DEDEE2DCE6DA0C
:10157000AA89AE843289368401C51C4D91E30933B2
:10158000971700009387C788639BF40C83A44900D6
:1015900083D7C400A18BF5C79C48E5C79307000219
:1015A000A304F1029307000302D22305F10222C62D
:1015B000930B5002971A0000938A8A89054C294B95
:1015C0004A848347040099C36390770FB30C244186
:1015D000638D0C00E6864A86A6854E852D3FFD5715
:1015E0006306F51E9256E69636D283470400638F53
:1015F000071CFD571309140002C802CE3ECA02CCD4
:10160000A309010482D48345090015465685152790
:1016100013041900C24759E913F7070109C7130753
:101620000002A309E10413F7870009C71307B002FA
:10163000A309E104834609001307A0026380E608BA
:10164000F2474A8481462546034704009305140067
:10165000130707FD6379E60AB5CA3ECE85A897074A
:1016600000009387E77C6395F40083A489000DB79D
:10167000970700009387C777E39CF4F083A4C90021
:1016800001BFA6854E85EFF05F8909D97D55FA40E7
:101690006A44DA444A49BA492A4A9A4A0A4BF65BEA
:1016A000665CD65C0D618280050421BF330555411F
:1016B0003315AC00C98F3EC82289B1B732479306B3
:1016C0004700184336C6634907023ACE0347040071
:1016D0009307E002631FF704034714009307A00277
:1016E000631BF702B2470904138747009C433AC6BD
:1016F00063C107023ECA35A83307E04093E72700DD
:101700003ACE3EC8E1B7B387670385462E84BA97C1
:1017100025BFFD57C5B7050402CA81468147254646
:101720000347040093051400130707FD6376E606DC
:10173000F1F2834504000D46170500001305C5713D
:10174000CD2B11CD97070000938707711D8D93074F
:101750000004B397A700424505045D8D2AC8834560
:1017600004001946170500001305456F13091400FE
:101770002304B1027D2B3DC197F7FFFF9387878834
:1017800095E74247B2471377071009CF91073EC646
:101790009257D2973ED22DB5B387670385462E84E4
:1017A000BA97BDBF9D07E19BA107D5B77800970603
:1017B0000000938686D626860C084E85970000008A
:1017C000E7000000FD572A8AE314F5FC83D7C40024
:1017D00093F70704E39C07EA125555BD7800970676
:1017E0000000938686D326860C084E85012AD9BF31
:1017F000797156CA9C49BA8A984522D426D24ECECF
:1018000052CC06D64AD05AC85EC6AA892E84B28463
:10181000368A63D3E700BA879CC00347340419C3F0
:1018200085079CC01C4093F7070281C79C4089072D
:101830009CC00329040013796900631A0900130B83
:101840009401FD5B5C449840998F634CF9041C4003
:101850008346340493F70702B336D000A5EB130692
:101860003404D2854E85829AFD576303F5041C40EB
:1018700011469840998B544481446397C700B384C0
:10188000E64063D3040081441C4418486354F700C5
:10189000998FBE94014969047D5B639824050145D5
:1018A00009A885465A86D2854E85829A631E75019F
:1018B0007D55B250225492540259F249624AD24A9A
:1018C000424BB24B456182800509ADBF3307D4005E
:1018D00013060003A301C7040347540493871600AB
:1018E000A2978906A381E7049DBF85462286D285FB
:1018F0004E85829AE30E65FB050945B7797122D4BE
:1019000026D24AD04ECE06D652CC56CA5AC8B6892E
:1019100083C68501930790063289AA842E84138694
:101920003504638DF60263E2D7069307800563876B
:10193000F61863EDD7006380062293073004638EA8
:10194000F60A930A24042301D404C9A0930730069D
:101950006385F60A93074006E395F6FE1C400843AC
:1019600093F6070893054500C5C61C410CC363D810
:1019700007001307D002B307F040A301E404970661
:1019800000009386264E29476DA8930700076383BE
:10199000F61663E5D7029307E006638AF618930705
:1019A000F006E390F6FA0C401C4313F80508138583
:1019B00047006307080608C39C438DA89307500798
:1019C000E383F6FE93078007638AF61293073007D6
:1019D000E399F6F61C43D04181459386470014C332
:1019E00083AA07005685B12601C53305554148C075
:1019F0005C401CC8A301040471A81C43930A24047E
:101A0000938647009C4314C32301F4048547D5B74C
:101A100093F607041C410CC3B9DAC207C18781BF22
:101A200093F5050408C3C9D983D707001307F00647
:101A30006387E60E970600009386C6422947A301F6
:101A400004044C400CC463C5050008406D9908C0EF
:101A500099E3B28A91CDB28AB3F5E702FD1AB69541
:101A600083C505002380BA00B3D5E70263FFE70A08
:101A7000A147631EF7001C40858B91CB58401C4842
:101A800063C7E70093070003A38FFAFEFD1A33062E
:101A9000564110C84E87CA867000A2852685893BAC
:101AA0007D5A631E450B7D55B25022549254025903
:101AB000F249624AD24A424B45618280A382D504F0
:101AC000970600009386063A0C40084313F8050871
:101AD0001C411105630D080208C313F7150001C767
:101AE00093E505020CC04147B9FB0C4093F5F5FDA9
:101AF0000CC0B1B79C4193E707029CC193078007D4
:101B0000A302F404970600009386063775BF13F806
:101B1000050408C3E30308FCC207C1837DBF970621
:101B2000000093862634214719BFAE8735B794410C
:101B30001C43CC4913F806081385470063060800C8
:101B400008C39C438CC301A808C393F606049C43B6
:101B5000F5DA2390B70023280400B28A25BF144881
:101B60005686CA8526858299E30F45F31C40898BEA
:101B70008DE7B2474844E359F5F23E8535B78546CF
:101B80005686CA8526858299E30F65F1050A5C446D
:101B90003247998FE345FAFEE9BF014A930A94015F
:101BA0007D5BF5B7411122C42E848395E50006C6FE
:101BB000712A634905007C48AA977CC8B240224438
:101BC000410182808357C4007D777D17F98F2316EA
:101BD000F400EDB783D7C500011122CC26CA4AC84C
:101BE0004EC606CE93F70710AA842E843289B68992
:101BF00091C78395E5008946014631228357C40089
:101C00007D777D17F98F2316F4008315E400624475
:101C1000F240CE864A86B24942492685D2440561C1
:101C20003DA8411122C42E848395E50006C6E12813
:101C3000FD570357C400631BF500FD77FD17F98FAF
:101C40002316F400B2402244410182808567D98F77
:101C50002316F40068C8FDB78395E50005A8411177
:101C600022C42A842E85B285368623A4018206C624
:101C7000EFE0EFEEFD576317F500938781829C43F9
:101C800091C31CC0B240224441018280411122C450
:101C90002A842E8523A4018206C6F928FD576317DE
:101CA000F500938781829C4391C31CC0B2402244BB
:101CB00041018280411122C42A842E85B28523A449
:101CC000018206C6C120FD576317F5009387818204
:101CD0009C4391C31CC0B240224441018280411107
:101CE00022C42A842E8523A4018206C65520FD57CE
:101CF0006317F500938781829C4391C31CC0B24057
:101D0000224441018280411122C42A842E85B28559
:101D1000368623A4018206C65120FD576317F500BD
:101D2000938781829C4391C31CC0B24022444101ED
:101D3000828093F5F50F2A966314C50001458280D1
:101D400083470500E38DB7FE0505FDB7411122C4A9
:101D50002A842E85B285368623A4018206C6A92050
:101D6000FD576317F500938781829C4391C31CC084
:101D7000B2402244410182809307800523A4F1826E
:101D80007D5582809307800523A4F1827D55828052
:101D90009307800523A4F182014582809307800583
:101DA00023A4F1827D5582809307800523A4F182CC
:101DB0007D55828053797374656D436C6B3A256CE5
:101DC000640D0A004368697049443A2530386C78DC
:101DD0000D0A000054686973206973207072696E7F
:101DE0007466206578616D706C650D000000000000
:101DF00000000000000000000000000000000000E3
:101E000000000000000000000000000000000000D2
:101E100000000000000000000000000000000000C2
:101E200000000000000000000000000000000000B2
:101E300000000000000000000000000000000000A2
:101E4000000000000000000000000000232D302BE7
:101E500020000000686C4C0065666745464700003E
:101E600030313233343536373839414243444546D0
:101E70000000000030313233343536373839616292
:081E80006364656600000000C8
:101E88000000000001020304010203040607080918
:101E98000000000000000000010203040607080912
:101EA800000000000C1E00002C1E0000EC1D0000AD
:101EB800000000000000000000000000000000001A
:101EC800000000000000000000000000000000000A
:101ED80000000000000000000000000000000000FA
:101EE80000000000000000000000000000000000EA
:101EF80000000000000000000000000000000000DA
:101F0800AC0000200204060800D8B8052000002014
:081F1800200000200000000081
:00000001FF
