:040000006F004075D8
:100004000000000000000000DE070000E007000020
:100014000000000052070000000000000000000083
:10002400520700005207000000000000000000001A
:10003400520700000000000052070000000000000A
:100044005207000052070000520700005207000048
:100054005207000052070000520700005207000038
:100064005207000052070000520700005207000028
:100074005207000052070000520700005207000018
:100084005207000052070000520700005207000008
:1000940052070000520700005207000052070000F8
:1000A40052070000520700005207000052070000E8
:1000B40052070000520700005207000052070000D8
:1000C40052070000520700005207000052070000C8
:1000D40052070000520700005207000052070000B8
:1000E40052070000520700005207000052070000A8
:1000F4005207000052070000520700005207000098
:1001040000000000520700005207000052070000E0
:100114005207000052070000520700005207000077
:100124005207000052070000520700005207000067
:100134005207000052070000520700005207000057
:100144005207000052070000520700005207000047
:100154005207000052070000520700005207000037
:100164005207000052070000520700005207000027
:100174005207000052070000520700005207000017
:100184005207000052070000520700005207000007
:1001940052070000520700005207000052070000F7
:1001A400000000000000000000000000000000004B
:0C01B4000000000000000000000000003F
:1001C0003D432A876373C3029377F700BDEFADE524
:1001D000937606FF3D8ABA960CC34CC30CC74CC736
:1001E0004107E36BD7FE11E28280B306C3408A0663
:1001F0009702000096966780A6002307B700A30623
:10020000B7002306B700A305B7002305B700A30472
:10021000B7002304B700A303B7002303B700A3026A
:10022000B7002302B700A301B7002301B700A30062
:10023000B7002300B700828093F5F50F93968500F1
:10024000D58D93960501D58D61B7939627009702BA
:10025000000096968682E78086FA9680C1171D8FE9
:100260003E96E374C3F8A5B701118545114506CE46
:1002700002C202C402C6E92E85472312F1003715D7
:1002800001408D473EC44C00C147130505803EC662
:10029000B122F24005618280938781809C433717A9
:1002A0007A0013070720B3D7E7021307803E93F7BE
:1002B000F70F3387E702238DF180239CE180828052
:1002C000B7F700E0CC43814637F700E0F999CCC39B
:1002D00083D581813386A50290CBD4CB944393E61A
:1002E000060194C3944393E6160294C35C43858B42
:1002F000F5DF1C43F99B1CC38280797126D2AA8446
:1003000011658545110506D622D49926930700204C
:100310002312F100371501408D474C003EC41305F0
:100320000580E147374401403EC64D280C081305BF
:100330000480B707080026C83ECC02CA231E01006D
:100340003D26130504808545D12EB2502254925487
:100350004561828001114EC606CE22CC26CA4AC80B
:10036000B2896357C00237440140AE843389C50067
:1003700013040480930500042285F12665DD8504BD
:100380008385F4FF2285C205C1814D2EE31499FEB9
:10039000F24062444E85D2444249B24905618280AE
:1003A00097070020938707CE9C431387C1823E9511
:1003B000636EE500177700201307C7446368A70042
:1003C000170700202320A7CC3E858280FD573E855D
:1003D0008280B7F7FF1F03A54770828003A88500BE
:1003E000937708011373F80081C7DC413363F3008E
:1003F00083D6050093F7F60FA1CB0C418147854EBC
:10040000BD4F130F800293028004214E21A0850767
:10041000638BC7033397FE0033F6E600E319C7FE8C
:1004200013962700B398CF0093C8F8FFB3F5B80030
:100430003316C300D18D6309E807E31A58FC18C9C5
:100440008507E399C7FD0CC19307F00F63FDD7043F
:1004500083284500A147854EBD4F130F80029302AC
:100460008004414E21A08507638DC7033397FE00AA
:10047000B3F5E600E319B7FE139627000116B3950E
:10048000CF0093C5F5FFB3F815013316C300B36869
:100490001601630DE801E31858FC18C98507E397B6
:1004A000C7FD23221501828058C995B758C965BF79
:1004B0000CC982804CC9828023AEA180828037170C
:1004C00002405C439146B18B6385D700A1466384AB
:1004D000D706B7177A00938707201CC1371602404A
:1004E0005842970600209386E6B111833D8B3697DC
:1004F00003470700B3D7E7005CC1584221831D8B37
:1005000036970347070033D7E70018C558422D83B5
:100510001D8BBA9603C7060093864180B3D7E700C8
:100520005CC5584239830D8B369703470700B3D714
:10053000E7021CC982805C43B7F6FF1F584383A6BD
:10054000C6704166C983BD8B718F139616018907EA
:10055000635F060289466389D70CBD466389D70C61
:10056000C146639DD70A8146BD4705EB3747024028
:1005700003270780418B2DCB37177A0013070720FD
:10058000B387E7021CC1B9DA85831CC181BF454628
:100590008146E39CC7FCC94771DBB7150240D855BB
:1005A0001316F700D8556359060411833D8B37168F
:1005B0007A000507130606203356E60210C1D85507
:1005C00021833D8B39C785456306B706BD45630A60
:1005D000B70609073307C7023716024050563D8A4F
:1005E00005063357C70215A037173D0013070790BC
:1005F000B387E7021CC141BF3D8B130617003717B5
:100600007A00130707203357C702B387E7021CC1DC
:100610009DBF13172600329705837DBFC54663979C
:10062000D7028146C14791B78146C947B5B78546CC
:10063000B54725BF1317160032970E07329705836B
:1006400061BF1317260032970A0779B7814631BF79
:1006500099C5371702401C4F5D8D08CF8280B717B0
:100660000240984F1345F5FF798D88CF82808356DD
:10067000050103D76500F577FD177971F58F22D451
:1006800026D206D6D98F03D7C5002318F5002A84B1
:100690000355C500AE84FD7783D5450003D684009D
:1006A0009387379F83D6A400E98FCD8FD18FD58FC5
:1006B0002316F400835744016800C207C18393F7EF
:1006C000F7CFD98F231AF400DD3BB747014093875A
:1006D00007806303F404D246984093971600B697B8
:1006E0008E07B6970A07B3D7E70293064006B250C3
:1006F000925433F7D702120713072703B3D7D70251
:100700003357D70292073D8BD98FC207C183231479
:10071000F400225445618280E2467DBF81C983573F
:10072000C5000967D98F2316F50082800357C500DD
:10073000F977FD17F98F2316F500828093F5F51FE1
:100740002312B5008280035505006D8D3335A0005E
:10075000828001A0970100209381C112178100209F
:100760001301418A17150000130505639705002042
:10077000938545891386818163FAC500832205002C
:1007800023A0550011059105E3EAC5FE138581817B
:100790009385C1826377B500232005001105E36DC1
:1007A000B5FEFD42739002BCAD4273904280B762C9
:1007B00000009382820873900230970200009382B7
:1007C000A28493E2320073905230EF000009970246
:1007D000000093822202739012347300203001A033
:1007E000B707EFBE37E700E0938707083CC701A0D3
:1007F0004111094506C622C4C131AD22713C716563
:1008000013050520DD3C938781808C43171500007C
:100810001305454B37140140FD2E653EAA8517157B
:1008200000001305254BC52E171500001305854B39
:1008300001231D3C130504808545AD391304048054
:1008400085452285B5311305401F9D3C2285854590
:1008500095311305401FAD34E5B7B71702409843F3
:10086000B706FFF041111367170098C3D843371537
:100870000240B7050200758FD8C39843B706F7FE4C
:10088000FD16758F98C39843B706FCFFFD16758F4C
:1008900098C3D843B70601FFFD16758FD8C3984398
:1008A000B70600ECFD16758F98C33707FF0098C791
:1008B00023A6070202C402C69843C1660566558F87
:1008C00098C321A0A247638AC7001C41ED8F3EC692
:1008D000A24785073EC4B247F5D7B71702409C43ED
:1008E0001397E700635A070085473EC6324785479E
:1008F0006309F7004101828002C632478547E31B46
:10090000F7FEB7170240D8433706C1FF7D16D8C39C
:10091000D843D8C3D4433717024093E60640D4C324
:10092000D443F18ED4C3D44337062900D18ED4C327
:10093000944337060001D18E94C31C4393966700FD
:10094000E3DD06FE5C4337160240A146F19B5CC323
:100950005C4393E727005CC35C42B18BE39ED7FE08
:1009600041018280B7160240D842B7177A0021466B
:10097000318B938707206303C70237170240584320
:1009800097F6FF1F9386066911833D8B36970347C1
:100990000700B3D7E70023A4F1808280D842D44275
:1009A000C16749833D8BFD8E930727001DCB3D47D3
:1009B0006381E70C41476391E7080146BD478DE637
:1009C0003747024003270780418B2DCF37177A0026
:1009D00013070720B387E70223A4F18059DE85833C
:1009E00069BF0146C947E9DEB7150240D8559316DD
:1009F000F700D85563D1060611833D8BB7167A00F0
:100A0000050793860620B3D6E60223A4D180D855E5
:100A100021833D8B35C385456305B706BD45630915
:100A2000B70609073307D702B7160240D456BD8A66
:100A300085063357D7020DA845470146E391E7F8ED
:100A4000C147B5BF37173D0013070790B387E702CB
:100A500023A4F18061B73D8B9306170037177A0006
:100A6000130707203357D702B387E70223A4F18087
:100A7000B5B70546B547A1B7139726003697058346
:100A800065B71397160036970E073697058369BF2B
:100A90001397260036970A0741BFDDC183A7C5FF1C
:100AA000411122C406C626C21384C5FF63D30700C2
:100AB0003E94AA84EF00F013938701829C4381EF58
:100AC0002322040023A081822244B240268592443E
:100AD00041016F003012637EF40014403307D400EC
:100AE0006396E7009843DC43369718C05CC0D9BFD3
:100AF000BA87D84319C3E37DE4FE94433386D70015
:100B0000631F86001040B29694C33386D700E31D5E
:100B1000C7FA10435843B29694C3D8C375B76375E8
:100B2000C400B1479CC04DB71040B306C400631663
:100B3000D70014435843B29614C058C0C0C369B715
:100B40008280011126CA93843500F19806CE22CC0A
:100B50004AC84EC6A104B14763F3F404B14463E24A
:100B6000B4042A89EF00F0089387018298433A84FD
:100B700039E0938741829C4391E781454A85752AF4
:100B800023A2A182A6854A854D2AFD5963193507FE
:100B9000B1472320F9004A85EF00D00529A0E3D012
:100BA00004FCB1471CC10145F2406244D2444249B1
:100BB000B249056182801C40858F63CF0702AD4634
:100BC00063F6F6001CC03E9404C031A05C40631381
:100BD000870223A0F1824A85EF00D0011305B400FB
:100BE0009307440061993307F5405DDF3A94898F9C
:100BF0001CC05DBF5CC3C5B72287404095BF1304CE
:100C000035007198E30285FCB305A4404A8535227E
:100C1000E31C35FBB5BF39713EDA2ED232D436D65D
:100C20003AD842DC46DE9387C18022CC804326CA74
:100C300006CEAA8409C41C4C99E32285B9230C442E
:100C400054102686228536C6EF00B001F240624479
:100C5000D24421618280011126CA4AC806CE22CC24
:100C60004EC652C4AA842E8901C51C4D91E3312B76
:100C70009C4C804499E32685092B971700009387A5
:100C8000E709631CF402C0408357C400A18BB1C7BD
:100C90001C48A1C7FD59294A1C4483450900FD177A
:100CA000B1E91CC463DE07062286A94526855D28B6
:100CB000FD576308F502294535A097170000938773
:100CC000E7076314F4008044C1B7971700009387C7
:100CD000E702E31BF4FAC04445BFA28526859922AA
:100CE00055D97D55F2406244D2444249B249224A24
:100CF000056182801CC4050963D70700184C63CBCB
:100D0000E700638945011C401387170018C0238042
:100D1000B70059B722862685B120E31F35F7D1B732
:100D20001C401387170018C029472380E70061B7CC
:100D30009387C180AA85884339BF411122C42A8480
:100D40002E8523A4018206C6EFF08FE5FD576317B9
:100D5000F500938781829C4391C31CC0B24022441A
:100D600041018280011122CC26CA4AC806CE4EC655
:100D7000AA842E89328401C51C4D91E3392197172D
:100D800000009387A7F96319F406C0401C4C1CC4EB
:100D90008357C400A18BC9C31C48BDCF1C48084061
:100DA0009379F90F1379F90F1D8D5C486346F500AF
:100DB000A2852685652C2DE51C440505FD171CC460
:100DC0001C401387170018C0238037015C486389D3
:100DD000A7008357C400858B81CBA9476316F90010
:100DE000A285268561240DEDF24062444A85D244F5
:100DF0004249B2490561828097170000938707F442
:100E00006314F400804459B797170000938707EFE5
:100E1000E31EF4F6C0449DBFA285268521203DDD5A
:100E20007D59D9B741119387C18026C2844322C41A
:100E30004AC006C62A892E8489C49C4C99E326851B
:100E4000A92697170000938767ED631CF402C04042
:100E50000317C40093170701C18393F68700B5EE0B
:100E600093F607019DEEA5472320F90013670704B9
:100E70002316E4007D55B2402244924402494101C8
:100E8000828097170000938767EB6314F400804417
:100E9000C1B797170000938767E6E31BF4FAC044D5
:100EA00045BF918B8DC74C5889C99307440463840F
:100EB000F5004A85DD36232A04028357C400232225
:100EC000040093F7B7FD2316F4001C481CC0835799
:100ED000C40093E787002316F4001C4881EF835772
:100EE000C4001307002093F707286385E700A28555
:100EF0004A8585218357C40013F7170005C75C484E
:100F000023240400B307F0401CCC1C480145A5F77E
:100F10008317C40013F7070839DF93E70704231684
:100F2000F40089BF898B014791E3584818C4F1BF89
:100F300083D7C500011122CC26CA06CE4AC84EC6A8
:100F400013F78700AA842E8471EFD841634DE00027
:100F5000B841634AE0000145F2406244D24442494C
:100F6000B2490561828058547DD703A90400939645
:100F7000370123A0040063DD060670488357C400D0
:100F8000918B99C75C401D8E5C5899C33C401D8E67
:100F90005C540C50814626858297FD570357C40048
:100FA000631DF5009440F54763E8D706B707402076
:100FB0008507B3D7D700858BA5C31C48232204001F
:100FC0001CC09317370163D80700FD576314F50061
:100FD0009C4091E368C84C5823A02401ADDD9307E1
:100FE00044046384F50026854D3C232A0402A5B7FA
:100FF0000C500146854626850297FD572A86E31F39
:10100000F5F69C40A5DF75476385E7005947639473
:10101000E70423A0240181B7136707042316E40023
:101020007D551DBF83A90501E38709F203A90500CA
:101030008D8B23A0350133093941014791E3D8490C
:1010400018C4E35A20F11C540C50CA864E862685DB
:1010500082976349A0008357C40093E707042316CF
:10106000F4007DBFAA993309A940E1BF9C49B9CFDB
:10107000011122CC06CE2A8411C51C4D81E72EC653
:101080002922B24597170000938747C9639BF50053
:101090004C408397C50095C722856244F2400561A4
:1010A00041BD97170000938767C96394F5000C440E
:1010B000CDB797170000938767C4E39CF5FC4C44B9
:1010C000C9BFF240624401450561828001458280CA
:1010D000411122C406C62A842316B5002317C50071
:1010E00023200500232205002324050023220506D2
:1010F00023280500232A0500232C050021468145CD
:101100001305C505EFF0CF8B971700009387679AFB
:101110005CD0971700009387C79C1CD497170000DA
:10112000938707A15CD4971700009387C7A300D0CB
:101130001CD8B2402244410182809705000093856B
:1011400025F3A9A2411126C2130680069384F5FF58
:10115000B384C4024AC02E8922C406C693854407BC
:10116000CD322A8401CD232005002322250131051B
:1011700008C4138684068145EFF08F842285B2402F
:10118000224492440249410182801C4DADE3411149
:1011900006C622C497070000938767FA1CD5938779
:1011A00001819C43232405042326050423280504E8
:1011B0006314F50085471CCD2A841D2848C022856C
:1011C000052808C422852D2048C448400146914581
:1011D000013708440546A545E53D48440946C9454B
:1011E000C53D85471CCCB2402244410182808280AB
:1011F00041119387018126C284434AC006C69C4C94
:1012000022C42A8999E3268549379384840480443B
:10121000DC40FD1763D607009C40B9CF8440C5BFB2
:101220000317C40039E7C17785072322040623206A
:10123000040023220400232404005CC423280400A7
:10124000232A0400232C0400214681451305C405EC
:10125000EFE01FF7232A0402232C040223240404B2
:10126000232604042285B2402244924402494101CB
:1012700082801304840671BF91454A85E13588C098
:1012800051FDB1472320F9000144E9BF797122D40F
:101290004AD052CC56CA5AC85EC606D626D24ECEC0
:1012A0002A8AAE8A130485040149054BFD5B09ECCB
:1012B000B25022544A8592540259F249624AD24AA3
:1012C000424BB24B45618280044483294400FD199E
:1012D00063D409000040E1BF83D7C400637BFB00F7
:1012E0008397E40063877701A6855285829A3369E4
:1012F000A90093848406E1BF1971A6DAAE848395B0
:10130000E500A2DC86DE328463DC050083D7C400FE
:1013100023A0060093F7070885E7930700401DA068
:10132000300836C6EF00B009B246E34105FE724709
:10133000BD67F98F7977BA9793B717009CC2F1BF51
:10134000930700041CC0F6506654D6540145096149
:10135000828083D7C500011122CC06CE26CA4AC896
:10136000898B2E8489CF930774041CC01CC88547C1
:101370005CC8F2406244D2444249056182807400F4
:101380003000AA84953FA2452A892685EFF06FFB9D
:1013900001ED8317C40013F7072061FFF19B93E76A
:1013A00027002316F400C1B797070000938727D9B9
:1013B0009CD48357C40008C008C893E707082316C5
:1013C000F400A2475CC8B24791CF8315E40026859C
:1013D000EF00900101C98357C400F19B93E7170008
:1013E0002316F4008357C4003369F900231624013F
:1013F00049B7828082801C46FD171CC663DA07004D
:10140000184E63C5E700A9476394F5006FF09F95F8
:101410001C422E851387170018C22380B7008280D4
:10142000011122CC26CA4AC84EC652C406CE2A8909
:10143000AE893284B304D6007D5A6314940001450A
:1014400009A8834504004E864A8575370504E316CE
:1014500045FFF2406244D2444249B249224A056102
:101460008280357122CD26CB4AC94EC706CF52C5E0
:1014700056C35AC1DEDEE2DCE6DAAA89AE843289DE
:10148000368401C51C4D91E30933971700009387FB
:10149000E788639BF40C83A4490083D7C400A18B25
:1014A000F5C79C48E5C793070002A304F102930720
:1014B000000302D22305F10222C6930B5002971AB1
:1014C0000000938AAA89054C294B4A84834704006B
:1014D00099C36390770FB30C2441638D0C00E686AB
:1014E0004A86A6854E852D3FFD576306F51E92560A
:1014F000E69636D283470400638F071CFD57130915
:10150000140002C802CE3ECA02CCA309010482D450
:101510008345090015465685152713041900C2474F
:1015200059E913F7070109C713070002A309E104EA
:1015300013F7870009C71307B002A309E104834624
:1015400009001307A0026380E608F2474A84814637
:1015500025460347040093051400130707FD63792C
:10156000E60AB5CA3ECE85A8970700009387077D97
:101570006395F40083A489000DB797070000938753
:10158000E777E39CF4F083A4C90001BFA6854E85EC
:10159000EFF05F8909D97D55FA406A44DA444A4937
:1015A000BA492A4A9A4A0A4BF65B665CD65C0D61D8
:1015B0008280050421BF330555413315AC00C98F26
:1015C0003EC82289B1B7324793064700184336C652
:1015D000634907023ACE034704009307E002631F02
:1015E000F704034714009307A002631BF702B247F6
:1015F0000904138747009C433AC663C107023ECAE9
:1016000035A83307E04093E727003ACE3EC8E1B75C
:10161000B387670385462E84BA9725BFFD57C5B7A4
:10162000050402CA81468147254603470400930505
:101630001400130707FD6376E606F1F28345040004
:101640000D46170500001305E571CD2B11CD970749
:101650000000938727711D8D93070004B397A7009F
:10166000424505045D8D2AC88345040019461705C7
:1016700000001305656F130914002304B1027D2BCC
:101680003DC197F7FFFF9387E79795E74247B2473A
:101690001377071009CF91073EC69257D2973ED2D3
:1016A0002DB5B387670385462E84BA97BDBF9D07C6
:1016B000E19BA107D5B7780097060000938686D6F0
:1016C00026860C084E8597000000E7000000FD57B5
:1016D0002A8AE314F5FC83D7C40093F70704E39C3C
:1016E00007EA125555BD780097060000938686D309
:1016F00026860C084E85012AD9BF797156CA9C49A5
:10170000BA8A984522D426D24ECE52CC06D64AD09A
:101710005AC85EC6AA892E84B284368A63D3E7008B
:10172000BA879CC00347340419C385079CC01C407A
:1017300093F7070281C79C4089079CC003290400D6
:1017400013796900631A0900130B9401FD5B5C4473
:101750009840998F634CF9041C408346340493F7F6
:101760000702B336D000A5EB13063404D2854E85AC
:10177000829AFD576303F5041C4011469840998BEB
:10178000544481446397C700B384E64063D30400A4
:1017900081441C4418486354F700998FBE94014952
:1017A00069047D5B63982405014509A885465A862E
:1017B000D2854E85829A631E75017D55B2502254A2
:1017C00092540259F249624AD24A424BB24B4561A5
:1017D00082800509ADBF3307D40013060003A301BF
:1017E000C7040347540493871600A2978906A38170
:1017F000E7049DBF85462286D2854E85829AE30EF8
:1018000065FB050945B7797122D426D24AD04ECE60
:1018100006D652CC56CA5AC8B68983C685019307E4
:1018200090063289AA842E8413863504638DF602CD
:1018300063E2D706930780056387F61863EDD70048
:101840006380062293073004638EF60A930A240409
:101850002301D404C9A0930730066385F60A9307D1
:101860004006E395F6FE1C40084393F607089305EF
:101870004500C5C61C410CC363D807001307D0023E
:10188000B307F040A301E404970600009386464E98
:1018900029476DA8930700076383F61663E5D7020F
:1018A0009307E006638AF6189307F006E390F6FACA
:1018B0000C401C4313F8050813854700630708060E
:1018C00008C39C438DA893075007E383F6FE930754
:1018D0008007638AF61293073007E399F6F61C43F4
:1018E000D04181459386470014C383AA07005685DB
:1018F000B12601C53305554148C05C401CC8A30151
:10190000040471A81C43930A2404938647009C4353
:1019100014C32301F4048547D5B793F607041C418B
:101920000CC3B9DAC207C18781BF93F5050408C3A8
:10193000C9D983D707001307F0066387E60E970619
:1019400000009386E6422947A30104044C400CC4DE
:1019500063C5050008406D9908C099E3B28A91CD2E
:10196000B28AB3F5E702FD1AB69583C50500238058
:10197000BA00B3D5E70263FFE70AA147631EF70089
:101980001C40858B91CB58401C4863C7E7009307E8
:101990000003A38FFAFEFD1A3306564110C84E8786
:1019A000CA867000A2852685893B7D5A631E450B39
:1019B0007D55B250225492540259F249624AD24A99
:1019C000424B45618280A382D5049706000093862E
:1019D000263A0C40084313F805081C411105630D15
:1019E000080208C313F7150001C793E505020CC0F0
:1019F0004147B9FB0C4093F5F5FD0CC0B1B79C41D4
:101A000093E707029CC193078007A302F40497069B
:101A100000009386263775BF13F8050408C3E30357
:101A200008FCC207C1837DBF970600009386463439
:101A3000214719BFAE8735B794411C43CC4913F8F1
:101A40000608138547006306080008C39C438CC33F
:101A500001A808C393F606049C43F5DA2390B70067
:101A600023280400B28A25BF14485686CA852685D5
:101A70008299E30F45F31C40898B8DE7B2474844B8
:101A8000E359F5F23E8535B785465686CA852685E3
:101A90008299E30F65F1050A5C443247998FE3456B
:101AA000FAFEE9BF014A930A94017D5BF5B7411143
:101AB00022C42E848395E50006C6712A6349050079
:101AC0007C48AA977CC8B240224441018280835757
:101AD000C4007D777D17F98F2316F400EDB783D707
:101AE000C500011122CC26CA4AC84EC606CE93F7BD
:101AF0000710AA842E843289B68991C78395E500A0
:101B00008946014631228357C4007D777D17F98FBE
:101B10002316F4008315E4006244F240CE864A8620
:101B2000B24942492685D24405613DA8411122C4EB
:101B30002E848395E50006C6E128FD570357C400AF
:101B4000631BF500FD77FD17F98F2316F400B240F3
:101B50002244410182808567D98F2316F40068C82A
:101B6000FDB78395E50005A8411122C42A842E857E
:101B7000B285368623A4018206C6EFE0AFFDFD578D
:101B80006317F500938781829C4391C31CC0B240C8
:101B9000224441018280411122C42A842E8523A43B
:101BA000018206C6F928FD576317F50093878182E5
:101BB0009C4391C31CC0B240224441018280411128
:101BC00022C42A842E85B28523A4018206C6C120A0
:101BD000FD576317F500938781829C4391C31CC016
:101BE000B240224441018280411122C42A842E85C0
:101BF00023A4018206C65520FD576317F50093877D
:101C000081829C4391C31CC0B24022444101828026
:101C1000411122C42A842E85B285368623A40182EE
:101C200006C65120FD576317F500938781829C43B8
:101C300091C31CC0B24022444101828093F5F50F4C
:101C40002A966314C5000145828083470500E38D11
:101C5000B7FE0505FDB7411122C42A842E85B28541
:101C6000368623A4018206C6A920FD576317F50016
:101C7000938781829C4391C31CC0B240224441019E
:101C800082809307800523A4F1827D55828093078B
:101C9000800523A4F1827D5582809307800523A4CB
:101CA000F182014582809307800523A4F1827D554E
:101CB00082809307800523A4F1827D5582800000F5
:101CC00053797374656D436C6B3A256C640D0A002F
:101CD0004368697049443A2530386C780D0A000031
:101CE00054686973206973207072696E7466206528
:101CF00078616D706C650D00000000000000000050
:101D000000000000000000000000000000000000D3
:101D100000000000000000000000000000000000C3
:101D200000000000000000000000000000000000B3
:101D300000000000000000000000000000000000A3
:101D40000000000000000000000000000000000093
:101D50000000000000000000232D302B20000000B8
:101D6000686C4C0065666745464700003031323389
:101D70003435363738394142434445460000000087
:101D800030313233343536373839616263646566F1
:041D9000000000004F
:101D9400000000000102030401020304060708090D
:101DA4000000000000000000010203040607080907
:101DB40000000000181D0000381D0000F81C000081
:101DC400000000000000000000000000000000000F
:101DD40000000000000000000000000000000000FF
:101DE40000000000000000000000000000000000EF
:101DF40000000000000000000000000000000000DF
:101E040000000000000000000000000000000000CE
:101E1400AC0000200204060800D8B8052000002009
:081E2400200000200000000076
:00000001FF
