:040000006F106035E8
:100004000000000000000000E0130000E213000004
:100014000000000054130000000000000000000075
:1000240054130000541300000000000000000000FE
:1000340054130000000000005413000000000000EE
:100044005413000054130000541300005413000010
:100054005413000054130000541300005413000000
:1000640054130000541300005413000054130000F0
:1000740054130000541300005413000054130000E0
:1000840050090000541300005413000054130000DE
:1000940054130000541300005413000054130000C0
:1000A40054130000541300005413000054130000B0
:1000B40054130000541300005413000054130000A0
:1000C4005413000054130000541300005413000090
:1000D4005413000054130000680800005413000077
:1000E4005413000054130000541300005413000070
:1000F4005413000054130000541300005413000060
:1001040000000000541300005413000054130000B6
:10011400541300005413000054130000541300003F
:10012400541300005413000054130000541300002F
:10013400541300005413000054130000541300001F
:10014400541300005413000054130000541300000F
:1001540054130000541300005413000054130000FF
:1001640054130000541300005413000054130000EF
:1001740054130000541300005413000054130000DF
:1001840054130000541300005413000054130000CF
:1001940054130000541300005413000054130000BF
:1001A400000000000000000000000000000000004B
:0C01B4000000000000000000000000003F
:1001C000411106C6096513050558FD2E7D29B2406B
:1001D0004101828015C58DC50347250093870181A4
:1001E000F8C303473500B8C303474500D8DF0347CA
:1001F000550098DF03476500D8DB0347750098DB9F
:10020000828051C5C9C5834735001397870083474E
:100210002500D98FC207C18753F707D09747000041
:1002200087A507B45377B7109747000007A687B391
:100230005377C7109747000087A607B35377D710A7
:1002400093860181D8E2034755009317870003473F
:1002500045005D8F42074187537707D05377B7102A
:100260005377C7105377D71098E6834775001397D5
:10027000870083476500D98FC207C187D3F707D0AE
:10028000D3F7B710D3F7C710D3F7D710DCE68280C7
:1002900025CDBDC9834735001397870083472500C7
:1002A000D98FC207C18753F707D09747000007A629
:1002B00027AB5377C7109747000087A6E7B453775B
:1002C000D7109386018198EA03475500931787005A
:1002D000034745005D8F42074187537707D0537727
:1002E000C7105377D710D8EA834775001397870054
:1002F00083476500D98FC207C187D3F707D0D3F7EB
:10030000C710D3F7D7109CEE828025CDBDC9834797
:1003100035001397870083472500D98FC207C1870F
:1003200053F707D09747000007A687A35377C71056
:100330009747000087A607AD5377D71093860181B2
:10034000D8EE0347550093178700034745005D8F9C
:1003500042074187537707D05377C7105377D71099
:1003600098F2834775001397870083476500D98FFC
:10037000C207C187D3F707D0D3F7C710D3F7D71079
:10038000DCF2828005CD9DC9894735A03306F50092
:10039000834616001397860083460600D98E13877E
:1003A000E700131617001387018132972314D70033
:1003B000850793F7F70F1547E37AF7FC8280411121
:1003C00006C622C426C24AC02A89AE84014463708C
:1003D0009402B307890083C5070017450000130581
:1003E000E5A2EF10F02B05041374F40FCDB72945E7
:1003F000EF108032B240224492440249410182808F
:10040000630F0514638D0514797106D622D426D2A4
:100410004AD04ECE22E626E483471500938707FB99
:1004200093F6F70F2547636AD7129397260017476D
:10043000000013076790BA979C43BA978287593B8D
:100440009385018103A80503DC59985DD45DB04113
:10045000EC411745000013056591EF107024B25070
:10046000225492540259F2493264A2644561828056
:10047000493B93870181C0638467C867EF30406A56
:100480002A89AE8953859420EF3080692A84AE840E
:1004900053058420EF30C0684A88CE882287A6871B
:1004A0002A86AE86174500001305458EEF10501FB3
:1004B0007DB7F93B93870181806BC46B886FEF3008
:1004C00020662A89AE8953859420EF3060652A849E
:1004D000AE8453058420EF30A0644A88CE882287FA
:1004E000A6872A86AE86174500001305E58BEF1018
:1004F000301BB5B7193D93870181C06F8473C873F2
:10050000EF3000622A89AE8953859420EF30406134
:100510002A84AE8453058420EF3080604A88CE88D8
:100520002287A6872A86AE8617450000130585898F
:10053000EF1010172DB7B9359387018103D7E70264
:1005400083D6C70203D6A70283D5870217450000CA
:1005500013054589EF10D01419B7953509B7828076
:10056000011106CE22CC02C202C4231601002307C9
:1005700001002945E529412985673E958357458036
:10058000C207C1832D47B3F7E7022388F1800144F6
:100590009D2985673E9583574580C207C1838DC3DA
:1005A000952C1C08A297238AA7FE050442044180CB
:1005B000AD47B377F402E9FFAD4548009135C1BFBF
:1005C000F240624405618280397106DE22DC26DA5F
:1005D000AA8402D202D402D602CA02CC02CE02D02F
:1005E00002C602C8854537050200EF00F03A85458E
:1005F0001145EF00903891472312F1028D473ED408
:10060000E1473ED64C103714014013050480EF003B
:100610001002A1472312F10291473ED64C10130558
:100620000480EF00D00026CA231C0100231D010016
:10063000231E010023100102B147231FF1004C08C3
:100640003744004013050440EF00F036054693059B
:10065000404213050440EF00D04393076003230694
:10066000F1009947A306F1002307F10085473EC832
:100670006800EF00B009854513050440EF00703FA6
:10068000F2506254D254216182805D7186C6A2C448
:10069000A6C202CA02CC02CE02D002D202D402D634
:1006A00002D802DA02DC02DE02C602C88545054530
:1006B000EF00D02A370402401305C406752102D288
:1006C000930700083ED402D602D802DA0D673ADC5E
:1006D00002DEB7440040138744403ACA138791862C
:1006E0003ACC02CE3ED04C081305C406752505460B
:1006F00089451305C406CD2D930700022306F1009A
:100700009947A306F1002307F10085473EC868001A
:10071000EF00C07F85451305C4065D2D0546930592
:10072000000413850440EF00303AB6402644964456
:1007300061618280011106CE22CC26CA4AC84EC60B
:1007400052C456C2AA8997170020938767A483D7FB
:1007500047800564130404801D8C42044180636358
:10076000B4002E8497170020938787A283D7078031
:10077000C207C1838564938404809D8CC204C180B8
:1007800063EC840497140020938484A083D70480AE
:100790002286CE85170500201305859F3E95EF30F4
:1007A000004E83D70480A297C207C1832390F480B0
:1007B000971700209387C79D03D747803A94420438
:1007C000418023928780F2406244D2444249B24938
:1007D000224A924A05618280138907802299420940
:1007E00013590901970A0020938A8A9A171A002040
:1007F000130A0A9A03550A802686CE855695EF304D
:1008000000484A86B38599005685EF30404723104B
:100810002A8179BF171700201307879783562780EF
:10082000970700209387C796B69703C5070083579D
:1008300027808507C207C1832311F780835727804C
:10084000C207C1831307F07F6374F7002397011673
:10085000171700201307C79383574780FD17C20758
:10086000C1832312F78082801D71A2CEA6CCCACA92
:10087000CEC882E686E48AE28EE012FE16FC1AFA00
:100880001EF82AF62EF432F236F03AEE3EEC42EA48
:1008900046E872E676E47AE27EE093054042374528
:1008A000004013050540EF00502605ED7644E64470
:1008B0005649C6493660A660166186617272E27258
:1008C0005273C2733275A275127682767267E267CE
:1008D0005268C268326EA26E126F826F2561730019
:1008E0002030B704024083A904079384C406939779
:1008F0000901C18393090008B389F940C20993D95A
:10090000090113848186034904001379F90F933791
:1009100019002300F400814526855D299305000810
:100920002685F129834704009E07A2978507DCC42A
:100930008545268571293745004013050540EF00A0
:10094000301B131579002295CE850505E533B9BF17
:100950001D71A2CEA6CCCACA82E686E48AE28EE0E7
:1009600012FE16FC1AFA1EF82AF62EF432F236F0AF
:100970003AEE3EEC42EA46E872E676E47AE27EE05F
:10098000138481868344040093F4F40F93B7140016
:100990002300F4008145370902401305C9060D29DB
:1009A000930500081305C9069929834704009E078B
:1009B000A29785071305C9065CC5854511291395BE
:1009C00074002295930500080505AD333705020034
:1009D0000D297644E64456493660A6601661866164
:1009E0007272E2725273C2733275A2751276827697
:1009F0007267E2675268C268326EA26E126F826FCF
:100A000025617300203017F5FF1F1305657882807C
:100A1000011106CE02C202C402C685451145B12F9E
:100A200085472312F1008D473EC4C1473EC64C00A6
:100A30003715014013050580DD2EF24005618280E7
:100A400097F7FF1F9387475E9C4337177A0013077A
:100A50000720B3D7E70293F7F70F2385F180130739
:100A6000803EB387E7022394F1808280B7F700E0ED
:100A7000D843799BD8C303D781803306A702814628
:100A800090CBD4CB98431367070198C3984313675F
:100A9000170298C3B7F700E0DC43858BE5DF37F733
:100AA00000E01C43F99B1CC38280797106D622D4D6
:100AB0002A84854511651105C92593070020231A4D
:100AC000F1008D473ECCE1473ECE4C083715014042
:100AD00013050580A92E22C223140100231501004D
:100AE0002316010023180100A1472317F1004C0031
:100AF00037440140130504807D2D8545130504808E
:100B00008D2FB250225445618280011106CE22CC35
:100B100026CA4AC84EC6AE84B289014431A8138998
:100B2000140083850400C205C181374501401305C7
:100B30000580552F0504CA84635B340193050004C6
:100B400037450140130505804D2F6DD9C9BF4E852E
:100B5000F2406244D2444249B24905618280B7F70B
:100B6000FF1F03A5477082801C4141677917F98FE9
:100B70001CC1232005002322050023240500232671
:100B80000500B7070240A1076308F50CB70702404C
:100B9000F107630AF50CB707024093870703630B5D
:100BA000F50CB707024093874704630EF50CB707AF
:100BB000024093878705630FF50CB70702409387C0
:100BC000C7066301F50EB707024093870708630362
:100BD000F50EB7070240938787406305F50EB70708
:100BE00002409387C7416308F50EB7070240938719
:100BF0000743630BF50EB707024093874744630032
:100C0000F510B7070240938787456303F510B707D0
:100C100002409387C7466307F510B70702409387E2
:100C20000748630BF510B707024093870749630F26
:100C3000F510B70702409387074A6302F512B7071A
:100C400002409387074B6305F512B707024093876D
:100C5000074C630AF5128280370702405C4393E732
:100C6000F7005CC38280370702405C4393E7070FBD
:100C70005CC38280B7060240DC420567130707F0B9
:100C8000D98FDCC28280370702405C43BD66D58FB6
:100C90005CC38280370702405C43B7060F00D58FE4
:100CA0005CC38280370702405C43B706F000D58FF3
:100CB0005CC38280370702405C43B706000FD58FC4
:100CC0005CC38280B707024003A747401367F70061
:100CD00023A2E7408280B707024003A7474013677B
:100CE000070F23A2E7408280B707024003A74740CF
:100CF0008566938606F0558F23A2E7408280B7076A
:100D0000024003A74740BD66558F23A2E74082807B
:100D1000B707024003A74740B7060F00558F23A22D
:100D2000E7408280B707024003A74740B706F000BC
:100D3000558F23A2E7408280B707024003A74740B0
:100D4000B706000F558F23A2E7408280B707024005
:100D500003A7474D1367F70023AAE74C8280B70724
:100D6000024003A7474D1367070F23AAE74C828071
:100D7000B707024003A7474D8566938606F0558F57
:100D800023AAE74C8280B707024003A7474DBD6600
:100D9000558F23AAE74CC1B51C4161773D077D8F74
:100DA0009C459451D58F9449D58FD449D58F944D76
:100DB000D58FD44DD58FD451D58F9455D58FD98F0C
:100DC0001CC1DC455CC19C411CC5DC415CC582800A
:100DD00091C51C4193E717001CC182801C414167EB
:100DE0007917F98F1CC1828009C61C41DD8D0CC1A9
:100DF00082801C4193C5F5FFFD8D0CC182804CC1E2
:100E000082809317350063D70700B707024023A2FB
:100E1000A74082809317250063D70700B7070240D9
:100E200023AAA74C8280B7070240C8C382809C4592
:100E300093F8F700C18B81C7DC41B3E8F80083C7A2
:100E40000500A1CF03280500014719A05CC90507CB
:100E50009D4763E2E7048547B397E70083D6050023
:100E6000FD8EE396D7FE13162700BD46B396C60047
:100E700093C6F6FF33F806013396C80033680601BF
:100E8000944513068002E383C6FC13068004E390B6
:100E9000C6FC1CC96DBF2320050103D705009307BD
:100EA000F00F63F1E70603284500014721A05CC964
:100EB00089A005079D4763E5E7041306870085477A
:100EC000B397C70083D60500FD8EE394D7FE1316B3
:100ED0002700BD46B396C60093C6F6FF33F8060159
:100EE0003396C80033680601904593068002E300FC
:100EF000D6FC904593068004E31DD6FA1CC955BF65
:100F000023220501828023A6A18082809387C1804D
:100F1000984389476303F7025C41A1C70347050073
:100F2000935757008546B396E600938707048A07D0
:100F300037E700E0BA9794C38280834715000D47D6
:100F4000E36CF7FC034605009A07834625009606E6
:100F5000D58F93F7070E37E700E032972300F7406D
:100F600065BF03470500935757008546B396E600D3
:100F7000938707068A0737E700E0BA9794C3828011
:100F8000B7170240DC43B18B11476383E708214761
:100F90006386E70899C7B7177A00938707201CC1B3
:100FA00031A0B7177A00938707201CC1371602407B
:100FB0005C429183BD8B97F6FF1F9386A604B6977C
:100FC00003C707001C41B3D7E7005CC15842218327
:100FD0001D8B36970347070033D7E70018C55842E3
:100FE0002D831D8BBA9603C70600B3D7E7005CC5F7
:100FF000584239830D8B97F6FF1F9386A6023697CA
:10100000034707001377F70FB3D7E7021CC98280A5
:10101000B7177A00938707201CC149BF37170240D2
:101020005C435843C166758FC983BD8B8907B7F68A
:10103000FF1F83A6C6701396160163450602C546B8
:101040006386D70481462DE3374702400327078094
:10105000418B39C337177A0013070720B387E7029C
:101060001CC171A88946638ED700BD46638DD70029
:10107000C1466380D70281464546E396C7FCC14717
:10108000D9B7C947F5B78546B547FDB78146C947C2
:101090005DBF8146BD4745BF37173D001307079029
:1010A000B387E7021CC1A1A837170240585713168F
:1010B000F70063570608B7150240D85511833D8BDA
:1010C0001306170037177A00130707203357C70294
:1010D00018C1D05521823D8A0DEA13162700329798
:1010E000058318C110413717024058573D8B05073B
:1010F0003357E60218C11841B307F7021CC1E38752
:1011000006EA1C4185831CC155B58545630AB600B6
:10111000BD456300B60209063307C70218C1D9B737
:1011200093151700BA95139635003297058318C1A9
:1011300055BF1316270032971316270010C15DB74D
:101140003717024058573D8B1306170037177A00A0
:10115000130707203357C70218C171BF99C5371746
:1011600002405C4B5D8D48CB8280371702405C4B60
:101170001345F5FF7D8D48CB828099C53717024016
:101180001C4F5D8D08CF8280371702401C4F1345DE
:10119000F5FF7D8D08CF828099C5371702405C4FDF
:1011A0005D8D48CF8280371702405C4F1345F5FFB5
:1011B0007D8D48CF8280797106D622D426D22A84AA
:1011C000AE848356050103D76500F577FD17F58FCB
:1011D000D98F2318F5000356C50083D6450003D7E1
:1011E000850083D7A500D98ED58F7D771307379FCC
:1011F000718FD98F2316F50083574501C207C1832C
:1012000003D7C50093F7F7CFD98F231AF5006800ED
:10121000853BB747014093870780630AF404D246B1
:1012200013971600369793173700B69798400A071A
:10123000B3D7E7029306400633D7D702931547008A
:10124000370600107D16718F3307D702998F9207EA
:1012500093872703B3D7D702BD8BCD8FC207C18336
:101260002314F400B2502254925445618280E24625
:1012700045BF81C98357C5000967D98F2316F5007B
:1012800082800357C500F977FD17F98F2316F50003
:10129000828093F7F50F95830547B315B700638BED
:1012A000E7000947638AE700510509CA1C41DD8D43
:1012B0000CC182803105D5BF4105C5BF1C4193C516
:1012C000F5FFFD8D0CC1828019C683574501DD8D68
:1012D000231AB50082808357450193C5F5FFFD8D24
:1012E000231AB500828093F5F51F2312B500828082
:1012F000035545001375F51F828083570500FD8D4A
:1013000099C1054582800145828093F7F50F958349
:1013100085463397B6006383D70289466384D70234
:10132000835745017D8FA1818547B395B7008357CA
:101330000500FD8D01CF89ED014582808357C500F1
:101340007D8FD5B7835705017D8FF1BF0145828021
:101350000545828001A097F1FF1F9381A14C177171
:101360000020130121CA173500001305A5C397F506
:10137000FF1F938525C91386818063FAC5008322E8
:10138000050023A0550011059105E3EAC5FE13856C
:101390008180938541176377B500232005001105EF
:1013A000E36DB5FEFD42739002BCAD427390428086
:1013B000B7620000938282087390023097F2FFFFB9
:1013C000938282C493E2320073905230EF00E014B3
:1013D000970200009382220273901234730020302F
:1013E00001A037E700E0B707EFBE938707083CC7C7
:1013F00001A0411106C609453936B52AEFF04FE480
:10140000716513050520EFF04FEA97F7FF1F9387EB
:10141000A7C18C43173500001305C59FEF00502866
:10142000EFF0EFF3AA85173500001305A59FEF0035
:101430003027173500001305E59FEF00902817357A
:1014400000001305A5A0EF00D027EFF06FDCEFE060
:101450003FD7EFF0EF90F5BF411102C602C4371736
:1014600002401C43C166D58F1CC3B71702409C4382
:1014700037070200F98F3EC4B24785073EC6A24730
:1014800089E732478567E312F7FEB71702409C43AE
:101490001397E700635A070085473EC422478547F4
:1014A0006306F7004101828002C4CDBFB717024036
:1014B000D843D8C3D843D8C3D84313670740D8C349
:1014C000D843B706C1FFFD16758FD8C3D843C16690
:1014D000558FD8C39843B7060001558F98C3B717E7
:1014E00002409C4313976700E35B07FEB717024077
:1014F000D843719BD8C3D84313672700D8C3B71705
:101500000240DC43B18B2147E39BE7FE61BF411101
:1015100006C69937B24041018280411106C6B7170D
:10152000024098431367170098C3D843B706FFF0EB
:10153000758FD8C39843B706F7FEFD16758F98C30D
:101540009843B706FCFFFD16758F98C3D843B706BE
:1015500001FFFD16758FD8C39843B70600ECFD1642
:10156000758F98C33707FF0098C723A60702453732
:10157000B24041018280B7170240DC43B18B114772
:101580006386E7042147638AE70481CBB7177A00B3
:101590009387072023A2F18039A0B7177A00938799
:1015A000072023A2F180B7170240DC439183BD8B53
:1015B00017F7FF1F130707A6BA9783C607001387FD
:1015C00041801C43B3D7D7001CC38280B7177A0071
:1015D0009387072023A2F180F9B7371702405C43B5
:1015E0005843C166758FC983BD8B89078946638C53
:1015F000D702BD46638BD702C146638BD7028146B3
:101600004546638AC70239E337470240032707800C
:10161000418B05C737177A0013070720B387E70206
:1016200023A2F18069A0C947C1BF8546B547C9BF9C
:101630008146BD47C9BFC147F9B737173D001307FA
:101640000790B387E70223A2F18095A037170240E5
:1016500058571316F7006352060AB7150240D855BB
:1016600011833D8B1306170037177A0013070720E5
:101670003357C70223A2E180D05521823D8A21E25F
:10168000131627003297058323A2E1803717024003
:1016900058573D8B05079385418090413357E602AB
:1016A00098C1138741801043B387C7021CC3E38CE2
:1016B00006EE138741801C4385831CC3EDB5854529
:1016C000630BB600BD456302B60209063307C702C5
:1016D00023A2E18065BF93151700BA9513963500D4
:1016E0003297058323A2E18055B71316270032975E
:1016F0001316270023A2C18051BF37170240585745
:101700003D8B1306170037177A001307072033574E
:10171000C70223A2E18071B701112AC66C000546F9
:10172000014506CEEFF06FBEF240054505618280AF
:10173000011106CE2EC615CD1841AA8705C3584102
:101740007D5511CB8546631BD700984723000700C2
:1017500023A207000545F240056182809847B24602
:101760002300D7009847050798C7D8437D17D8C3EB
:10177000D5B705466C00EFF04FB9E9BF797122D4B7
:1017800026D24ECE52CC56CA06D64AD05AC82A8A3B
:10179000AE8A328481449309000263440602B3870F
:1017A0009A00838707009DE363D6840263D2E40234
:1017B000198C93F726009309000281C719E3930956
:1017C0000003858A01499DE6228929A88504C1BFB5
:1017D000058CC5B70144F1BFCE8552853AC6893F15
:1017E00032477D19E34A20FF2289635304000149EF
:1017F0003304244163CBE402CA84B3872441D697DF
:10180000838507009DED2289634120056353040011
:10181000014433059400B250225492540259F249C3
:10182000624AD24A424B45618280B3049740268B7C
:101830009305000352857D1BE53DE31B0BFE2699B6
:1018400065BF5285F53585044DBFCE855285CD35B2
:101850007D195DBF5D71A6C252DC86C6A2C4CAC036
:101860004EDE56DABA843E8A9DE1930700030147B3
:10187000D28626862C08231CF1000937B640264460
:1018800096440649F259625AD25A616182802A8985
:101890003684C68A91CAA94701446317F60063D506
:1018A0000500B305B0400544A30701029307F10208
:1018B000A546130568FC33F7C50263D3E6002A97F3
:1018C00013070703A38FE7FE9389F7FF33D7C502FA
:1018D00063F7C50401CCB9C413772A0021C7930567
:1018E000D0024A8542C6A9353248FD1493774A0092
:1018F00099CF93071006930500034A85631CF802ED
:10190000053D930580074A8525350904F914568756
:10191000D2862686CE854A859535229585B7BA85A5
:10192000CE8751BF1307D002A38FE9FE01449389EC
:10193000E7FF6DBFF53B93058005F1B71D71CAC880
:10194000CEC6D6C2DAC03A8986CEA2CCA6CAD2C446
:101950005EDE62DC66DA6AD86ED633E7C500BE8921
:10196000AA8A428B8347010639E38DCF8D6793871F
:10197000D7022314F100230501000147DA864E86C1
:101980002C005685E53BF6406644D6444649B649A8
:10199000264A964A064BF25B625CD25C425DB25DBF
:1019A00025618280930700032314F100F9B7368A7A
:1019B000AE84328463000902A9470149639CF600A2
:1019C000635A0600B304B040B33790003304C040FC
:1019D0001D8C0549A30F0100130DF101935DFA4120
:1019E000A54C138C68FC5286EE862685A285EF00F6
:1019F000100C63D3AC00629513050503A30FADFE75
:101A00005286EE862685A285930BFDFF2923636609
:101A1000B40163988D0263F64403630C0900638686
:101A2000090293772B0095C39305D002568509339D
:101A3000FD190147DA864E86DE85568581334A9543
:101A400099B7AA842E845E8D79BF9307D002A38FA5
:101A5000FBFE0149930BEDFFE9BF5D71A6C2CAC051
:101A6000AA842E892E85B28586C63ACE42CCA2C4DF
:101A70004EDE52DCB289368A56DA5AD8BE8A5ED633
:101A800062D466D2468C6AD0EF10D0542A8BAE8BCB
:101A900001468146CE854A85EF00503A724762483A
:101AA0007D81BA872AC00547E288D286DA855E86BC
:101AB000268569352A8D9305E00226859539050D21
:101AC0008147854C0144294763CD57075A85DE85F8
:101AD000EF1050632A86AE864A85CE85EF10C02669
:101AE0002A89AE896685A285EF10D0612A86AE86E6
:101AF0004A85CE85EF00F03FEF10D04D13D6F5416B
:101B0000318DB347B600B305C5403335B5003386D4
:101B1000C74002C0E288D687D286098E094826854A
:101B20000547293DB64026446A9596440649F25930
:101B3000625AD25A425BB25B225C925C025D616186
:101B40008280B3068702850733349703B30C97036B
:101B500036949DBF5D715AD8374B0000A2C4A6C20F
:101B6000CAC04EDE52DC56DA5ED662D486C666D273
:101B7000AA892E893284014A8144930B5002930A28
:101B8000B002294C130B8BE58305090085E56385BD
:101B9000090081454E85693EB640264426850649A2
:101BA0009644F259625AD25A425BB25B225C925C12
:101BB00061618280638775014E859D3E85040509BC
:101BC000E1B783071900930C190063997701930516
:101BD00050024E85B13E85046689D5B7CDDB63875B
:101BE000570563C8FA00130730026384E70481478E
:101BF00005A01307D002638AE70013070003E398E8
:101C0000E7FE930C2900894721A0930C2900854702
:101C100003870C006303570563C1EA029306300291
:101C2000630BD70266890145A54535A8930C2900A9
:101C30007DBF930C29009147E1BF9306D002630951
:101C4000D70093060003E31FD7FC93E7270031A0DA
:101C5000850C8547C1BF93E74700850CE1B7330585
:101C600085030509369503070900930607FD13F65A
:101C7000F60FE3F6C5FE1306E0029946631EC700A1
:101C800005098146254603070900130707FD9375DB
:101C9000F70F6375B602368A030709001306A0061C
:101CA0006309C70A6341E6021306C0046303C70A57
:101CB000130680066308C70801461DA8B38686037D
:101CC0000509BA96C9B7130640076304C708130687
:101CD000A0076300C7089305C0060146631AB70052
:101CE000830519000D466394E500050911460509B1
:101CF00003070900930500061308100663C4E500F6
:101D0000130810049305700663C2E5069305500698
:101D10006357B7169305700463CFE50213065004AA
:101D2000635FC71493063004E31BD7E81840930C95
:101D30004400A30E0100230EE100BE8601472A865F
:101D40006C0871A0830519000146E393E5FA0909BF
:101D500045B7050995B793063006E309D7FC63CE6E
:101D6000E606930680056303D70291BD930630070C
:101D70006306D70463CDE6029306F0066309D70C29
:101D80009306000793E74700E31BD7E21147631967
:101D9000E60A1D04137784FF0C43504313048700A5
:101DA000C28802C03E880147AA87C146B9A09306EF
:101DB00050076301D7069306800775B71840930C48
:101DC0004400DA8511C3BA855287BE862A864E85BD
:101DD000EFF0DF9AAA946684DDB311476313E6023D
:101DE0001D04137784FF0C43504313048700C288FB
:101DF00002C03E880547AA87A9464E858136AA9427
:101E00007DBB0C40D28811042A87854629464E8521
:101E10009134F5B71147631FE6001D04137784FF63
:101E20000C43504313048700C28802C03E88014718
:101E3000AA87D9B70C40D28811042A878146F9B7FE
:101E40000C40D28811042A8781464146C9B7114700
:101E50006310E6021D04137784FF0C435043130400
:101E60008700C28802C03E880147AA87A14671B791
:101E70000C40D28811042A878146214649BF1D049F
:101E8000137684FF130486000C4250423307D5407A
:101E9000C2887D173E884E85B687A9467D3E85B7A8
:101EA00039712ED232D4AA855010014506CE36D6CD
:101EB0003AD83EDA42DC46DE32C66939F240216168
:101EC0008280011122CC26CA06CE83470500AA844F
:101ED0000144A307F1008307F100050485E3A94746
:101EE0009305F10005460145A307F100EFE0FFC1AE
:101EF0002285F2406244D244056182800546930502
:101F0000F1000145EFE07FC0B387840083C707007D
:101F1000A307F100C9B7B687B2882A832E88639DCC
:101F2000061463F9C50A4167636EE61AB707000134
:101F30006363F63493568601E147172700001307C1
:101F400067F6369703470700BA97130700021D8FFD
:101F500019CB3398E500B357F500B318E60033E822
:101F600007013313E50013D608013355C8029396D1
:101F70000801C182935703013377C802B385A602D3
:101F800042073368F700637AB80046989307F5FF75
:101F9000636418016367B8303E853308B84033572F
:101FA000C8024203135303013378C802B386E60222
:101FB000420833686800637BD80046989307F7FFB0
:101FC0006365180179176363D8003E874205598D10
:101FD0008145828001E60547B358C702416763EA3D
:101FE000E80EB707000163ECF82893D68801E147B3
:101FF00017270000130707EB369783460700BE96A6
:1020000093070002958FE5EB939E080133871541F6
:1020100013DF080193DE0E01854593570301335505
:10202000E7033377E703B306D5034207D98F63FA93
:10203000D700C6971307F5FF63E4170163E6D726B9
:102040003A85958F33D7E703420313530301B3F760
:10205000E703B30ED703C207B3E7670063FBD701FB
:10206000C6979306F7FF63E51701791763E3D70176
:1020700036874205598D828063E2D504C16763E2E9
:10208000F604B707000163E4F61E13D78601614822
:1020900097270000938707E1BA9703C70700130E3D
:1020A00000024297330EEE40631A0E0C63EDB61C2D
:1020B0003335C500134515008145828081450145B2
:1020C00082809307F00F63F3D71C13D78600214853
:1020D000C1B71307F00FC686E37C17F193D68800CB
:1020E000A14739B71307F00FB286E378C7E49356D8
:1020F0008600A14799B5B398F80033D6D50013DF11
:102100000801335EE6033397F500B356D500558FCB
:10211000939E080193DE0E013313F50093550701DA
:10212000B376E603B387CE03C206CD8E63FBF6001B
:10213000C6961306FEFF63E4161763F2F616791EC1
:10214000C6969D8E33D6E60393170701C183B3F677
:10215000E6033385CE02139706015D8F637BA700EC
:1021600046979307F6FF636817136376A7127916ED
:10217000469793150E01098FD18D45B5B357E600EB
:10218000B396C601DD8E33D3E50013DF0601B357E6
:10219000E303939E060193DE0E013398C501335786
:1021A000E50033680701935808013316C6013373FD
:1021B000E303B385FE024203B368130163FBB80077
:1021C000B6981387F7FF63EAD80C63F8B80CF917D1
:1021D000B698B388B84033D7E803420813580801CB
:1021E000B3F8E8033383EE02C208B3E5080163FBEA
:1021F0006500B6951308F7FF63EDD50863FB650826
:102200007917B695C207416FD98F1307FFFFB3F651
:10221000E70093D80701718F4182B38EE602B38540
:102220006540B386C60213D80E013387E802BA961A
:10223000C2963386C80263F3E6007A9693D8060105
:10224000469663E2C5026385C5003E85814582806E
:1022500041677D17F98EC206B3FEEE003315C50146
:10226000F696E374D5FE1385F7FF8145828013D778
:102270000601414831BD93560601C1477DB993D649
:102280000801C147B5B381450545828036870148BD
:1022900001B5428785BF3E86E9BDBA871DBF328E34
:1022A0004DB579154698D5B97915C69759BBB687F6
:1022B00032882A832E872E8E6393061463F1C50A13
:1022C00041676378E61A1307F00FB2866375C7009B
:1022D00093568600A147172700001307A7BC36971F
:1022E0000347070093080002BA97B388F840638C4D
:1022F0000800B3951501B357F5003318160133EEF6
:10230000B7003313150113560801B357CE02131546
:102310000801418193560301337ECE02B307F502D3
:10232000420E3367DE006378F7004297636507016A
:102330006373F70042971D8FB356C70293170301CB
:10234000C1833377C7023305D5024207D98F63ECC7
:10235000A7083385A740335515018145828001E6E2
:1023600005473358C7024167636CE80EB7070001A1
:102370006365F82A93568801E14717270000130781
:1023800067B236970347070093080002BA97B388ED
:10239000F840639A081E131E0801B38505411356C1
:1023A0000801135E0E0113570301B3D6C502B3F53E
:1023B000C502B386C603C2054D8F6377D700429727
:1023C00063640701636AD726158F3355C70242033A
:1023D000135303013377C7023305C5034207B367BD
:1023E000670063F8A700C29763E5070163F3A700DE
:1023F000C2973385A74033551501814582802A88CD
:10240000E3EED5F4C16763E5F604B707000163E2C4
:10241000F62013D38601E14897270000938787A809
:102420009A9703CE070013030002469E3303C3416D
:102430006319030463E4B6006369C5003308C5404B
:10244000958D333705013387E5404285BA85828013
:102450009307F00F63FBD71C13D38600A1486DBF11
:102460001307F00FC286E37A07F193568800A1475D
:1024700029B7B70700016366F61A93568601E1474C
:1024800099BDB357C601B3966600DD8EB3D8C501BA
:1024900013D70601B3DEE802139F0601B357C50147
:1024A000135F0F01B3956500DD8D13D80501331659
:1024B000660033156500B3F8E802B307DF03C2080E
:1024C00033E80801637BF80036989388FEFF636366
:1024D000D8166371F816F91E36983308F840B357CA
:1024E000E802C205C1813378E802330FFF021317F7
:1024F00008014D8F637BE70136979385F7FF63698A
:10250000D7126377E713F9173697C20EC162B3EE9D
:10251000FE001388F2FFB3F80E019355060193DE17
:102520000E0133780601B38F08033307E741338880
:102530000E0393D70F01B388B802C298C697B38E23
:10254000BE0263F30701969E41687D1893D507018B
:10255000B3F70701C207B3FF0F01F695FE97636259
:10256000B70A630EB708B307F5403335F500B30576
:10257000B740898D339EC50133D567003365AE0002
:10258000B3D5650082803318180133D7F500135690
:102590000801B356C702131E0801B357F500135EB6
:1025A0000E01B3951501DD8D93DE05013313150181
:1025B0003377C702B307DE0293160701B3E6D601ED
:1025C00063F8F600C29663E5060163F3F600C2966F
:1025D0009D8E33D7C60293970501C183B3F6C60219
:1025E0003307EE0293950601DD8D63F8E500C29591
:1025F00063E5050163F3E500C295998D6DB3E3745E
:10260000F5F63386C740B3B7C700B6979D8DB2873E
:1026100099BF13D30601C14801B593560801C147BC
:10262000A9BB93560601C1477DB136838148EDB3FE
:10263000AE87E1BDC68E55B5429779B3F32720002A
:10264000B707100013D74501FD1713D846011377BC
:10265000F77F9308F07F33F3B7002A8EF58FFD8163
:10266000B28E1378F87FFD82630F1703630D180194
:1026700021E3B368A300631008025D8E09EE0145F3
:10268000639F08008280B3E8C700E38308FE73609D
:10269000180009458280638F08026383D5020545CF
:1026A000F5D17D5582803365A30075F16307E8029B
:1026B000631408005D8E65D6E393D5FEE341E8FE22
:1026C00063480701E3ED67FC630EF300637AF300F0
:1026D00099E1C1BFF9D6054582805D8E71DE45BFA7
:1026E00001458280E3EDCEFB0145E37DDEF9E5F5B2
:1026F0004DBF397152D406DE22DC26DA4AD84ED6D6
:1027000056D25AD05ECE62CC66CA2A8A732B20007B
:1027100013D945019399C5001379F97F93D9C9005D
:1027200093DBF501630E09129307F07F630DF91631
:102730001354D5018E09B36934013704800033E4A2
:10274000890093143500130919C0014A814C814A4C
:1027500093D746019399C60093F7F77FB28593D933
:10276000C90013DCF601D5CF1307F07F6384E704BB
:10277000139539009359D601B3E9A900938717C07F
:1027800037058000B3E9A900931536003E9901484A
:1027900033C68B01BD47B2861307190063EF471795
:1027A000171500001305056C0A0A2A9A83270A00E8
:1027B000AA97828733E6C9001309F97F63080612D6
:1027C0009397C900136A3A000D48E3C307FCC14A56
:1027D000C1B7E2864E84AE84C28C89476389FC12FD
:1027E0008D47638BFC10854736866392FC4C01470E
:1027F00081470144B2075207B1837E06D98FD18F3A
:102800002285BE8563990A34F2506254D2544259EB
:10281000B259225A925A025BF24B624CD24C21615D
:102820008280B3E7C900CDCF638A09344E8532C4B4
:10283000EF10803D2246AA87930655FF7547938582
:1028400087FF158FB399B9003357E600B369370195
:10285000B315B6003309F9401309D9C001480DBFBB
:1028600033E4A90025C836C632C46389092E4E85D3
:10287000EF1080392246B246AA87130755FF7544E8
:10288000938487FF198CB399990033548A00336479
:102890003401B3149A001309D0C03309F940014A36
:1028A000814C814A75B533E4A90011CC9397C900D6
:1028B000AA844E84314A1309F07F8D4CC14AE3D972
:1028C00007E8814A71B5214A81441309F07F894C98
:1028D000814ABDBD114A81440149854C814A8DBD63
:1028E000136A1A008149814505485DB5136A2A00BB
:1028F00081498145094869BD01461307F07FB70743
:1029000008000144C5BD8947DE86E39BFCEC3686A2
:102910001307F07F81470144F1BD41639307F3FF43
:1029200013D5040113DE0501FD8CFD8DB3879502DF
:10293000B308B50293D3070133089E024698C293A9
:102940003308C50363F313011A984163930EF3FF31
:1029500093D20901B3F9D901B3F8D301B3F7D70181
:10296000C208B38E3403BE9893D30301B30F35036B
:1029700013DF0E01B3849202FE94FA94B30755025A
:1029800063F3F4019A974163930BF3FF135A040125
:1029900033757401B3FF7401C180338FF400338445
:1029A000A502B3FE7E01C20FF69FFE93B307AE02EF
:1029B000935E0401B305BA02AE97BE9E330E4E037A
:1029C00063F3BE001A9EC1679385F7FF33F3BE0021
:1029D0006D8C4203229393DE0E01B3053503769E80
:1029E0003385A20213D40501B3093A034E9522950B
:1029F000B382420363733501BE92C16EFD1EB3778D
:102A0000D501C207B3FED501F697B3057800B3BF71
:102A1000F501FA979A953384F70133B86500B30E40
:102A2000C40133830E013334F401B3B7E701C18F1E
:102A3000333803011354050133BECE013E9433688D
:102A40000E01429493949500169413557301B3E4C8
:102A500014012604B3349000DD81498CCD8C26030B
:102A600093177400B3E4640063DB070093D714008A
:102A700085889315F401DD8CCD8C05803A89130788
:102A8000F93F6359E00493F7740099CB894793EABF
:102A90001A00630BFB208D47630DFB1E630F0B1C9D
:102AA0009317740063D80700B70700FFFD177D8CEC
:102AB000130709409307E07F63C9E71093D63400FA
:102AC000931794009314D40133E4D400B1831377A3
:102AD000F77F0DB38547998F79E393F574002287CB
:102AE00081CD094793EA1A006309EB200D47630D76
:102AF000EB1E2287630F0B1C61831347170093752E
:102B000017001309E9413397240133192401B3D481
:102B1000F4003337E000B3649900D98C13F57400E6
:102B20003357F40019C9894793EA1A006308FB1E5A
:102B30008D47630AFB1C63080B1E9317870063D045
:102B4000071893EA1A00639605167E06B707100069
:102B5000D18F0145BE8573A01A007DB1EF10C00A68
:102B600013075501F145930705022246B246E3D803
:102B7000E5D061153314AA00814431BB328532C4DB
:102B8000EF1080089306550171479307050222460E
:102B9000E356D7CA61158145B319A60065B99305F7
:102BA000800363D9F506458C01CC894793EA1A0066
:102BB0003334D0006306FB008D4701446301FB18EA
:102BC00093EA2A008146814715A08947630CFB0CD4
:102BD0008D47630EFB08630D0B0837041000930745
:102BE000F4FF9306E07F7D5493EA5A001397C700E1
:102BF0003183939746017E06D98FD18F2285BE857A
:102C000073A01A0011B10145B705F87FC14A73A03E
:102C10001A00DDBEFD4563D7F51285553387E540C3
:102C2000930500023357E4006387B7001309E943B3
:102C300033142401C18CB3349000D98C93F7740001
:102C400099CB894793EA1A006308FB0C8D47630A06
:102C5000FB0A63080B0C13D43400814793F61A0067
:102C60000147E38906B8814693EA2A0041B7B5F6E1
:102C70009306F07F8147014485BF93F7F4009145A7
:102C8000E380B7E293874400B3B497002694BE84F0
:102C900001BDE39706E093878400B3B497002694C0
:102CA000BE84FDBB9DDAE9B7E38C06DEEDB73A8959
:102CB000F9B385468147014493EA2A0005BF93177B
:102CC000970013D434007607B183598CC1F90147BA
:102CD00015B693F5F4001145E380A5E213B7C4FFE0
:102CE00013471700229709BD2287E39706E013B721
:102CF00084FF13471700229701B52287E38E06DE73
:102D0000FDB785450147E39A06E293878400B3B493
:102D100097002697BE8415B585450147E38F06E0E9
:102D2000EDB78545014793F7F4009146E387D7E077
:102D300093874400B3B497002697BE84FDBB13B4B9
:102D40001600BDBD854575BB011106CE22CC26CA35
:102D50004AC84EC652C4F3292000370810007D1817
:102D60003377B80093D846013378D80013D445019F
:102D7000131E37009357D5010E081353D60193F84D
:102D8000F87F930EF07F93D4F50133E7C7011374F6
:102D9000F47F131E3500FD8233680301931536005E
:102DA0006382D81D93C61600330314416387D4167B
:102DB0006353601C63840822B70780003368F800FF
:102DC0006302D46D9307800363CD673AFD4763C206
:102DD000675293070002B387674033D96500331603
:102DE000F800B395F5003366260133536800333994
:102DF000B00033662601330767403309CE403336CF
:102E00002E01118F9317870063DA072A131A970090
:102E1000135A9A00630B0A345285EF00F05E611575
:102E200093070002898F3317AA00B357F900D98F8F
:102E3000331AA90063408532018D13071500FD4642
:102E400063C0E64493060002998E3359EA00339634
:102E5000D700B316DA0033662601B336D0003369E3
:102E6000D60033D7E700B367E9006380071693778E
:102E7000790093151900131617009356F90113F5ED
:102E80007500B296014311C909466381C9660D46B2
:102E900005436385C9646388096237060001F18EC2
:102EA00013B51600E38C071001448947638CF9269B
:102EB0008D476388F92863820924B7058000F98D5E
:102EC000054319C1136323006383054A050493076F
:102ED000F07F6303F420B70780FFFD17F98F139687
:102EE000D70113593900A60733662601B18313743D
:102EF000F47F85881397C70052043183FE04418F05
:102F0000458F3285BA856314032AF2406244D24465
:102F10004249B249224A05618280635D600C638C3C
:102F20000816B70780003368F800630AD451930786
:102F3000800363CC6736FD4763D06746130603FE04
:102F4000930700023356C800630AF3009307000496
:102F50003383674033186800B3E50501B335B0002B
:102F60004D8E81AEB367B8001303148099E393C606
:102F700016006381D4086315030C9307140093F7BC
:102F8000E77F63920724B36EC701B367B80063128B
:102F9000045A638E0E486382074A3305BE40B33736
:102FA000AE00330607411D8E9317860063D4076A6F
:102FB0003389C541B307E840B3B525013387B7402E
:102FC000B367E900B684E39407EA0146014401438C
:102FD000B207B1831374F47F858829BFB367B80043
:102FE0006386071A9307F3FF638007486309D34595
:102FF0003E83C9BB631003209306140093F7E67F5A
:10300000639A074EB366C701631E043EB367B800F8
:10301000638A065A638307423309BE00B307070178
:103020003336C9013387C70093178700E3DD07E212
:10303000B70780FFFD177D8F05449377790069A05E
:10304000B3878840631304203365C70125C1138506
:10305000F7FF630F05541303F07F63866760AA8749
:1030600013068003634BF62A7D466348F65013052A
:1030700000021D8D3316A7003353FE003315AE003A
:10308000336666003339A000B357F7003366260174
:103090003308F84079A4B367B800EDCB9307F3FF8A
:1030A00063800732630BD34B3E8351B51307F07F28
:1030B000638AE75E42872E893E84B684B367E9005F
:1030C000E30504DA937779000145E39007DEB7055D
:1030D0008000F98D0143CDBB638F090C8D47638B55
:1030E000F90C8947638BF93013635300B70700204D
:1030F0007D56FD171304E07FE1BDB705800093778F
:10310000F90091460543F98DE38DD7DA9337C9FF6E
:1031100093C717003E97B7058000F98D1109E31397
:1031200005DA5DB3E38B04D89307890033B6270132
:103130003297B7058000F98D3E890543E31405D821
:1031400061B3FDD00543B7058000F98D8544E31BCD
:1031500005D69DBB370780FF7D177D8F5289098C6F
:10316000B367E900E30304D0B1BF4A85EF00D0297B
:10317000930785FF7D476105B317F900E34CA7CAA4
:1031800045B13368B8003336000185B9630FD331D8
:10319000B70580001A84F98D7289014335B36388BD
:1031A0008848639F07480145B705F87F414373206E
:1031B0001300A1BB95F81363530085881304F07FB7
:1031C0008147014605BB3309BE40B3372E01330AA0
:1031D0000741330AFA4093178A0063C20734B36782
:1031E0004901E39907C29384E9FF93B414000146AF
:1031F0000144F9BBB3878840630E04123705800091
:103200009306F07F498F6387D8509306800363C18C
:10321000F636FD4663C3F646930600029D8E3316CE
:10322000D7003355FE00B316DE00498E3339D00087
:10323000B357F700336626013E983309B600B3371B
:10324000B90033870701468495A83703800013052A
:10325000F07F33676700E395A8E0B365B800638249
:1032600005200E060D829317D801131798005D8E66
:10327000B68493573800014363460710414319A2AF
:1032800005159306000233D5A700630AD7009306FD
:1032900000043387E640B397E700336AFA00B33798
:1032A0004001C98F3E890147C9B63368B80033363B
:1032B00000013309C6013336C901329793178700DD
:1032C000E3DE07DE05049307F07F6303F408B70726
:1032D00080FFFD17F98F1376190013571900598EC7
:1032E0001399F7013369C90013D717009377790051
:1032F000E1BB130603FE930700023356C800630ABE
:10330000F300930700043383674033186800B3E584
:103310000501B335B0004D8ECDB43366C7013336E9
:10332000C0003389C540B3B725013307F840468450
:10333000B684C9BCB366C701638906289386F7FFC4
:10334000638B06381305F07F638EA740B68775BD83
:10335000638309208D47638BF93E8947638FF93C6E
:10336000639009441304E07F01470D491543931707
:10337000D701135639009306F07F5D8E93573700BF
:10338000E318D4C4D18FE38A07E281441304F07FA9
:10339000B70708000146B9BE93070002B38767402C
:1033A00033D965003316F800B395F500336626016E
:1033B000335368003339B000336626011A97D5BD00
:1033C0003309BE00B30707013336C9013387C7008D
:1033D000931787000544E3D707CEB70780FFFD1793
:1033E000F98F135619001399F7013369C90013D7E0
:1033F0001700094493777900C1B913635300E38739
:1034000004CE65BB9307F07F6300F42E6388F81E3B
:10341000638C061E3368B800E31908F613163500EE
:103420009317D7010D825D8E93573700A1BF638B31
:103430000716814742872E8EB68472891DBC33667B
:10344000C7010DC2370340000E0533736700131622
:10345000D7010D8113331300498E935737001203A0
:1034600015B7B684014391BB3309BE40B30707418A
:1034700033362E013387C740931787000544E3C7CF
:10348000079889B13366C70171DE37034000131610
:103490003500337367009317D7010D821333130080
:1034A0005D8E120393573700F1BDB367C701CDEBB3
:1034B0000147014E01439317D70113563E005D8E1D
:1034C00093573700C1B513F6F5001145E307A69CE5
:1034D00093B5C5FF93C51500AE96C1B2E39F049A9C
:1034E00013B685FF13461600B29645BA0543E38628
:1034F000049AFDB79307F07F6381F60EF295B30748
:10350000070133B7C501BA971396F701858133696F
:10351000B60013D7170036849377790075B63389D0
:10352000C5413308E840B3B52501330AB840B68435
:10353000D5B09305F07F6301B40E638AB80EE382C1
:103540000EC6E39407E40E051316D7010D81498ECC
:103550009357370005BD15438DB1B367C70199D3A4
:103560003703400033736700133313001203A1B70E
:103570003366C7013336C000C9B1138607FE130591
:1035800000023359C700638AA70013060004B3077B
:10359000F640B317F700336EFE003336C0013366D2
:1035A000260141B39384E9FF93B4140001460DB49E
:1035B0003389C541B307E840B3B525013387B74028
:1035C000B6845DBD42872E894DB01307F07F6388B6
:1035D000E70E42872E893E84D5B4E38E09F68D47E7
:1035E0006385F91C8947638AF914639B091A0145AD
:1035F00015431304E07F7D577D5909BEB365B800BC
:1036000063920510E39C06E00E069317D8010D8225
:103610005D8E93573800BDB3E3830EB893159700C2
:1036200063C3050041439305F07FE39CB8F06388D2
:1036300007129317980063C307004143E3970ED422
:10364000931736008D831316D8015D8EB684935779
:1036500038000DBBB367C500B1D72A8E93777500CC
:103660003287728939B0B365B800E38C05DE9317F1
:1036700036008D831316D801CDBE138607FE930640
:1036800000023359C700638AD70093060004B3874A
:10369000F640B317F700336EFE003336C0013366D1
:1036A000260161BE336EB80063020E0E93179800B8
:1036B00042872E8EB68463CE07004143EDBB336E46
:1036C000B80063010E0E9317980042872E8EE3D642
:1036D00007FE0143CDB33309BE00B3070701B3357D
:1036E000B9003387B700EDB1D5C69317970063C310
:1036F000070041439307F07FE39EF8D0B365B8001D
:10370000E38E05D09317980063C307004143E38D10
:1037100006EEA5B9B365B800E38605D437034000CB
:103720000E06337368009317D8010D82133313000C
:103730005D8E120393573800B1B1E39E04E0130489
:10374000E07F7D577D5915436FF04FF8E38504E026
:103750001304E07F01457D597D571543EDB2E384A5
:103760000EA4D5B3B365B800E38E05CE3703400091
:1037700093173600337368008D831316D801133303
:1037800013005D8E120393573800EDBE0147B684D7
:10379000014315B3E39A88E6B365B800A5F5ADB566
:1037A00015432DBA0147014339B3E38604DA0145D5
:1037B0001304E07F7D597D57154371B2B705800032
:1037C000F98D0144639206F0630003F01363230054
:1037D0006FF08FEF2A88F32720003705100093D76A
:1037E00045011307F5FF93F7F77F9308E03FC28683
:1037F0006D8F13D6F50163C2F80291EB33670701B1
:10380000014581453DCF854673A016008280014564
:103810008145854673A01600D5BF9305D04363DA72
:10382000F5028545918DB306B04013D5F541B70536
:103830000080898DB338D0003685B385154141C2EB
:103840001306E043C146E391C7FC336707014DFF10
:10385000828093082043B365A70063D5F8021387DD
:10386000D7BA9387D7BC63430708B315E80001456F
:1038700051DE3305A040B337A000B305B0409D8DA5
:1038800082808280130730431D8F7D45634DE502A2
:103890009387D7BEB316F8003355E800B397F50009
:1038A000B336D0005D8DB3D5E50001CA3305A04025
:1038B000B337A000B305B0409D8DB9F68280C146F4
:1038C00073A01600A1B7130500026308A700938632
:1038D000D7C0B396D500B3E60601130530411D8D60
:1038E00033D5A500B336D0008145C1B7FD46135787
:1038F00018009D8E3357D700B395F500D98D331539
:10390000F800BDB7011106CE22CC26CA4AC84EC661
:1039100052C456C2F32A2000B367B500A1C3AA89D6
:103920002E8A13D9F50163C105062E84D284630A59
:103930000A065285D12C9306E043898E93073043C3
:1039400063CED7089317CA002D464E8793F6F67FAD
:10395000B1836359A600130655FF9DA00149814616
:1039600081470147B207D206B1831316F901D58FFB
:10397000D18F3A85BE85F2406244D2444249B24971
:10398000224A924A056182803305A0403337A00065
:10399000330AB040330AEA40AA892E84D284E31A5B
:1039A0000AF84E8595242A869306E04313050502FE
:1039B000898E9307A00293F6F67F63C2A70C550683
:1039C0001307B002098FB317CA0033D7E9005D8F20
:1039D0009317C700B1833397C90069B79307604352
:1039E00063DAD702A144898C138604FE634F060C68
:1039F0003356CA0081441307850193078503634941
:103A0000070A339AE9008149B3E94901B339300122
:103A1000B3693601A14763C7A704370780FF7D1745
:103A200093F77900F98CA5C78947638CFA0A8D470B
:103A30006385FA0E638B0A0C1397940093F6F67F56
:103A4000939546019356C700CD8E93D9390013162E
:103A5000F901F604B3E43401558E2685B28573E08E
:103A6000100011BF93078002130785FF898FB3D71A
:103A7000F900B394E400DD8CB399E90079BF130732
:103A800056FFB397E900B207B1830147E1BD139731
:103A9000940093F6F67FD206318313D53900F604ED
:103AA0009317F901D98EC98CD58F2685BE85E1B5CE
:103AB000FD4513D719009D8D3357B700331AFA000F
:103AC000336A4701B399F90081B77D47058F931792
:103AD0001A0033D69900B397E7005D8EB3549A006D
:103AE00019BFE35B04F413878900B3393701CE941F
:103AF000B7078000E58FBA89A1D3B70780FFFD170C
:103B00009306F043FD8C898E05BF93F7F9001147AA
:103B1000E384E7F213874900C9BFE35604FC29BFD9
:103B2000411106C622C426C2D30705E07327200030
:103B300013D577011375F50F13071500139497002C
:103B40001377E70F258093D4F7011DC393573400F3
:103B5000130505387604B2075205B183C98FFE04F8
:103B6000C58F2285BE85B2402244924441018280A5
:103B70000DE935C422854928A94763C1A7082D4707
:103B8000098F930755013357E4003314F40093175A
:103B9000C700130790383305A740B1831375F57F2D
:103BA0005DBF15C83707080093573400D98F370712
:103BB00010007D17131694009316D401F98F6353E8
:103BC00006027D8F9397F401B704F07FD98CC58FDF
:103BD0003685BE8549BF1305F07F8147ADBF0145DE
:103BE000814795BF7D8F9397F401B704F07F458F90
:103BF000D98F3685BE8573601800B5B7130755FF9A
:103C00003317E400014461B7C167637EF50293078F
:103C1000F00F1307000263ECA700970700009387DB
:103C20006728AA9703C507003305A7408280218132
:103C30009707000093870727AA9703C507006147E6
:103C40003305A7408280B7070001636EF5006181EC
:103C50009707000093870725AA9703C50700214708
:103C60003305A7408280418197070000938787230F
:103C7000AA9703C5070041473305A7408280B3C711
:103C8000A5008D8B3307C50081E78D4763EEC70024
:103C9000AA876370E50A83C6050085078505A38F9B
:103CA000D7FEE3EAE7FE828093763500AA8791CAC1
:103CB00083C6050085078505A38FD7FE93F63700D9
:103CC000FDB79376C7FF138606FE63F0C70683A38E
:103CD000050083A2450083AF850003AFC50083AE16
:103CE000050103AE450103A3850183A8C5019385A2
:103CF000450223A0770003A8C5FF23A2570023A4F1
:103D0000F70123A6E70123A8D70123AAC70123AC03
:103D1000670023AE17019387470223AE07FF75B7ED
:103D200090419107910523AEC7FEE3EBD7FEE3E494
:103D3000E7F682800AC7FFFF3CC7FFFF7EC7FFFF91
:103D4000C0C7FFFF2AC7FFFF26C8FFFF26C8FFFF27
:103D500026C8FFFF26C8FFFF02C8FFFF000000388B
:103D600000008041CDCC1C4154494D453A25326478
:103D70002D2532642D253264202532643A253264A3
:103D80003A2532640A00000061583A25382E32661E
:103D90000961593A25382E326609615A3A25382E7A
:103DA00032660A0077583A25382E32660977593A32
:103DB00025382E326609775A3A25382E32660A009F
:103DC0007241583A25382E3266097241593A2538DF
:103DD0002E32660972415A3A25382E32660A0000A0
:103DE00044303A2535640944313A25356409443272
:103DF0003A2535640944333A2535640A0000000049
:103E0000000034430000FA442530327820000000DE
:103E100053797374656D436C6B3A256C640D0A00BD
:103E20004368697049443A2530386C780D0A0000BF
:103E300054686973206973207072696E74662065B6
:103E400078616D706C650D00092D2D3E4A59363133
:103E5000503C2D2D0D000000286E756C6C29000063
:103E6000BAEAFFFF74E9FFFF74E9FFFF72E9FFFFA1
:103E70007AE9FFFF7AE9FFFFA6EDFFFF72E9FFFF96
:103E80007AE9FFFFA6EDFFFF7AE9FFFF72E9FFFF86
:103E9000A6EAFFFFA6EAFFFFA6EAFFFF98EAFFFFF8
:103EA00000010202030303030404040404040404E1
:103EB00005050505050505050505050505050505B2
:103EC0000606060606060606060606060606060692
:103ED0000606060606060606060606060606060682
:103EE0000707070707070707070707070707070762
:103EF0000707070707070707070707070707070752
:103F00000707070707070707070707070707070741
:103F10000707070707070707070707070707070731
:103F20000808080808080808080808080808080811
:103F30000808080808080808080808080808080801
:103F400008080808080808080808080808080808F1
:103F500008080808080808080808080808080808E1
:103F600008080808080808080808080808080808D1
:103F700008080808080808080808080808080808C1
:103F800008080808080808080808080808080808B1
:103F900008080808080808080808080808080808A1
:103FA00000000000010203040102030406070809DF
:103FB00000000000000000000102030406070809D9
:083FC000020406080044950804
:00000001FF
